:020000040800F2
:1000000000000120C5020008CB020008CF02000852
:1000100041030008450300088D03000800000000AC
:10002000000000000000000000000000D5030008F0
:10003000D903000800000000DD0300085112000889
:10004000F1030008F1030008F1030008F1030008C0
:10005000F1030008F1030008F1030008F1030008B0
:10006000F1030008F1030008F1030008F1030008A0
:10007000F1030008F1030008F1030008F103000890
:10008000F1030008F1030008F1030008000000007C
:10009000000000000000000000000000F103000864
:1000A000F1030008F1030008F1030008F103000860
:1000B000F1030008F1030008F1030008F103000850
:1000C000F1030008F1030008F1030008F103000840
:1000D000F1030008F1030008F1030008000000002C
:1000E000F1030008F1030008F1030008000000001C
:1000F000000000000000000000000000F103000804
:1001000000000000F1030008F1030008F1030008FB
:1001100000000000000000000000000000000000DF
:10012000F1030008F1030008F1030008F1030008DF
:10013000F1030008000000000000000000000000C3
:10014000000000000000000000000000F1030008B3
:10015000F1030008F1030008F1030008F1030008AF
:10016000F1030008F1030008000000000000000097
:10017000000000000000000000000000000000007F
:1001800000000000F1030008000000000000000073
:10019000F103000800B583B000F046FE384B394A41
:1001A0001360394A1360394900E02146384B9942BF
:1001B0000BD20A684B6801F10C0488689842F4D9A4
:1001C0001168196004330432F8E72E4B1A68314B7A
:1001D0009A4200D0FEE72C4B1A682F4B9A42F9D175
:1001E000274B2E4A13602E4A13602E4B05E0002049
:1001F000106004329342FAD80B462B4A934204D241
:10020000194651F8082B5B68F4E7244B1B6813B9B7
:10021000234B1B6803B1FEE701F07AF8694601A899
:1002200000F094FD214C224BE41AA4100025AC42AE
:1002300014DC204C204BE41AA4100025AC4213DC43
:100240000099019801F0BCF805461C4C1C4BE41ABF
:10025000A410002C0EDC284600F04AFD144B53F885
:10026000253098470135E2E7134B53F8253098477E
:100270000135E3E7013C124B53F824309847E8E797
:10028000BABADECA0000002074000020F40300089F
:100290000C04000878563412325476987800002006
:1002A000200100200C0400081C0400081C040008A5
:1002B0001C0400081C0400081C0400081C0400089E
:1002C0001C04000808B5FFF765FF00BEFEE71EF03E
:1002D000040F0CBFEFF30880EFF309807146414A29
:1002E00010472DE9F04182B004468846124B5E6B00
:1002F0009F6B9D6A1B6B13F0020F03D00E4BDB6AE2
:10030000002B0CDB0D4800F033FDCDF800803B46A0
:1003100032462946204600F093FD00BEFEE74BF62C
:10032000AB6100F007FE0028ECD0034B4FF0004219
:10033000DA6202B0BDE8F08100ED00E0582100086B
:1003400000BEFEE71EF0040F0CBFEFF30880EFF3D2
:1003500009807146244A10472DE9F04182B00446D5
:100360008846084B5E6B9F6B9D6A074800F000FD56
:10037000CDF800803B4632462946204600F060FD1D
:1003800000BEFEE700ED00E0682100081EF0040F4B
:100390000CBFEFF30880EFF309807146134A104752
:1003A0002DE9F04182B004468846084B5E6B9F6B96
:1003B0009D6A074800F0DCFCCDF800803B463246E1
:1003C0002946204600F03CFD00BEFEE700ED00E0BF
:1003D0007421000800BEFEE700BEFEE700BEFEE797
:1003E00070470000E302000859030008A103000859
:0403F00000BEFEE766
:1003F4007C80000800000020780000207C80000839
:1004040000000010000000107800002024010020EB
:080414000000001000000010C0
:1004200010B50446074B1868074BA3FB0030800942
:1004300000F090F8002221464FF0FF3000F044F821
:10044000002010BD0C000020D34D621008B50B4BEE
:100450001A6842F400721A601A6842F480621A60E4
:100460001A6842F480721A60032000F00FF80F201F
:10047000FFF7D6FF00F0DCFF002008BD003C024083
:10048000014B1868704700BF1001002010B50446EA
:10049000C31E042B0FD80A4AD36823F4E0631B045D
:1004A0001B0C240204F4E064234343F0BF6343F4D1
:1004B0000033D36010BDA421024800F04FFCEAE7EE
:1004C00000ED00E0881F000870B505460C46164692
:1004D0000F2A25D80F2C28D81B4BDB68C3F3022327
:1004E000C3F10702042A28BF0422191D062921D9B5
:1004F000033B4FF0FF3101FA02F224EA02049C4070
:1005000001FA03F326EA03063443002D14DB240129
:10051000E4B205F1604505F5614585F8004370BD1D
:10052000BC210A4800F01AFCD4E7BD21074800F0BE
:1005300015FCD1E70023DCE705F00F052401E4B248
:10054000034B5C55EBE700BF00ED00E0881F00089F
:1005500014ED00E00138B0F1807F0AD2064B5860FC
:10056000064AF02182F823100020986007221A60C2
:1005700070470120704700BF10E000E000ED00E090
:1005800010B50446042800D038B9042C0BD0094A11
:10059000136823F00403136010BD40F2B311064842
:1005A00000F0DCFBF1E7034A136843F00403136037
:1005B000F2E700BF10E000E0881F000830B583B00C
:1005C000044603680F2B29D8236813F0010F3DD090
:1005D0006368012B01D9052B25D1A34B9B6803F040
:1005E0000C03042B29D0A04B9B6803F00C03082BB1
:1005F0001ED022799D4B1A706368002B50D0FFF7F4
:100600003FFF0546984B1B6813F4003F1ED1FFF7D0
:1006100037FF401B6428F5D90320E3E1F521944816
:1006200000F09CFBD0E7FA21914800F097FBD4E75B
:100630008D4B5B6813F4800FDBD08B4B1B6813F47E
:10064000003F03D06368002B00F0C981236813F0DA
:10065000020F5DD0E368012B31D823691F2B34D8FA
:10066000814B9B6813F00C0F3AD07F4B9B6803F0D3
:100670000C03082B2FD0E368002B74D07D4B012294
:100680001A60FFF7FDFE0546774B1B6813F0020F5B
:100690005AD1FFF7F5FE401B0228F5D90320A1E14E
:1006A000FFF7EEFE0546704B1B6813F4003FCDD0FC
:1006B000FFF7E6FE401B6428F5D9032092E14FF4D2
:1006C00096716B4800F04AFBC7E740F22D1168486D
:1006D00000F044FBC4E7644B5B6813F4800FCAD19D
:1006E000614B1B6813F0020F04D0E368012B01D0AB
:1006F000012077E15C48036823F0F8032169F822C0
:1007000092FAA2F2B2FA82F201FA02F21343036001
:10071000236813F0080F50D06369012B35D8636943
:10072000002B38D0544B01221A60FFF7A9FE054672
:100730004D4B5B6F13F0020F3FD1FFF7A1FE401B43
:100740000228F5D903204DE14748036823F0F80358
:100750002169F82292FAA2F2B2FA82F201FA02F2C6
:1007600013430360D4E7434B00221A60FFF788FE6F
:1007700005463D4B1B6813F0020FC9D0FFF780FE02
:10078000401B0228F5D903202CE140F26D113848B6
:1007900000F0E4FAC3E7384B00221A60FFF770FE5E
:1007A0000546314B5B6F13F0020F06D0FFF768FE72
:1007B000401B0228F5D9032014E1236813F0040F2D
:1007C00060D0A368012B01D9052B1FD10023019311
:1007D000254B1A6C42F080521A641B6C03F0805354
:1007E0000193019B254A136843F480731360FFF75C
:1007F00047FE0546214B1B6813F4807F0CD1FFF7A1
:100800003FFE401B0228F5D90320EBE040F2971190
:10081000174800F0A3FAD9E7227A194B1A70A36897
:1008200083B1FFF72DFE05460F4B1B6F13F0020F30
:1008300028D1FFF725FE401B41F288339842F3D9B7
:100840000320CFE0FFF71CFE0546074B1B6F13F09C
:10085000020F17D0FFF714FE401B41F28833984275
:10086000F3D90320BEE000BF003802400238024046
:10087000CC1F000800004742800E47420070004035
:1008800070380240A369022B39D8A369002B00F00D
:10089000A880564A926802F00C02082A00F0A48050
:1008A000022B40F08880E36913B1B3F5800F2CD19F
:1008B000236A3F2B2FD8636A323BB3F5BF7F30D812
:1008C000A36A022B05D0042B03D0062B01D0082BE2
:1008D0002DD1E36A043B0B2B2FD8454B00221A6025
:1008E000FFF7CEFD0546414B1B6813F0007F2AD071
:1008F000FFF7C6FD401B0228F5D9032072E04FF434
:10090000E6713C4800F02AFABFE740F2D5113948B9
:1009100000F024FACCE74FF4EB71364800F01EFAF1
:10092000C9E740F2D711334800F018FAC8E74FF48E
:10093000EC71304800F012FACBE740F2D9112D48A3
:1009400000F00CFAC9E7E369226A1343616A47F6CB
:10095000C07292FAA2F2B2FA82F201FA02F21343E0
:10096000A26A5208013A4FF4403191FAA1F1B1FA6A
:1009700081F18A401343E16A4FF0706292FAA2F269
:10098000B2FA82F201FA02F21343184A5360184B8A
:1009900001221A60FFF774FD0446144B1B6813F024
:1009A000007F06D1FFF76CFD001B0228F5D903205C
:1009B00018E0002016E00E4B00221A60FFF760FDE1
:1009C00004460A4B1B6813F0007F06D0FFF758FD62
:1009D000001B0228F5D9032004E0002002E00120DA
:1009E00000E0002003B030BD0120FBE700380240EA
:1009F00060004742CC1F0008214B9B6803F00C03AA
:100A0000042B3AD0082B01D01E4870471C4B586865
:100A100000F03F005B6813F4800F1ED01A4AB2FB4F
:100A2000F0F2174B586847F6C073184093FAA3F3D7
:100A3000B3FA83F3D84000FB02F0114B5B6803F478
:100A400040334FF4403292FAA2F2B2FA82F2D3402B
:100A500001335B00B0FBF3F070470A4AB2FBF0F2DF
:100A6000074B586847F6C073184093FAA3F3B3FADC
:100A700083F3D84000FB02F0DFE70348704700BF74
:100A8000003802400024F40040787D0170B504462F
:100A90000D460368013B0E2B11D8072D15D88C4B42
:100AA0001B6803F00F03AB4215D2EBB2884A1370F8
:100AB000136803F00F03AB420DD0012070BD40F26C
:100AC0003721844800F04AF9E7E74FF40E71814876
:100AD00000F044F9E3E7236813F0020F18D0A3688D
:100AE0007BB1802B0DD0902B0BD0A02B09D0B02B3D
:100AF00007D0C02B05D0D02B03D0E02B01D0F02B9A
:100B000037D1754A936823F0F003A1680B439360D3
:100B1000236813F0010F73D06368032B2FD8636829
:100B2000012B32D09A1E012A36D96B4A126812F074
:100B3000020F00F0CA8068498A6822F0030213435A
:100B40008B60FFF79DFC06466368012B2BD0022BC0
:100B500038D0032B45D0604B9B6813F00C0F4FD05F
:100B6000FFF78EFC801B41F288339842F3D90320B3
:100B7000A4E740F24F21574800F0F0F8C1E740F2F7
:100B80005621544800F0EAF8C9E7534A126812F4B3
:100B9000003FD0D1012091E74F4A126812F0007F48
:100BA000C9D101208AE74C4B9B6803F00C03042B4E
:100BB00026D0FFF765FC801B41F288339842F2D9BA
:100BC00003207BE7444B9B6803F00C03082B17D0F2
:100BD000FFF756FC801B41F288339842F2D903207C
:100BE0006CE73D4B9B6803F00C030C2B08D0FFF720
:100BF00047FC801B41F288339842F2D903205DE71D
:100C0000334B1B6803F00F03AB4209D9EAB2304BF8
:100C10001A701B6803F00F03AB4201D001204DE7AF
:100C2000236813F0040F14D0E3685BB1B3F5805F61
:100C300008D0B3F5A05F05D0B3F5C05F02D0B3F51F
:100C4000E05F36D1244A936823F4E053E1680B4314
:100C50009360236813F0080F15D023695BB1B3F5D7
:100C6000805F08D0B3F5A05F05D0B3F5C05F02D0B8
:100C7000B3F5E05F23D1184A936823F460432169F8
:100C800043EAC1039360FFF7B7FE134B9B6803F081
:100C9000F003F02292FAA2F2B2FA82F2D3400F4AA3
:100CA000D35CD8400E4B18600F20FFF7B9FB002033
:100CB00004E74FF42D71074800F050F8C2E740F206
:100CC000BB21044800F04AF8D5E70120F6E600BF52
:100CD000003C0240CC1F000800380240BC1F000846
:100CE0000C000020014B1868704700BF0C0000206A
:100CF000FEE7000008B5034800F052F80120FFF7B6
:100D0000F7FF00BFFC1F000808B503460C4A126835
:100D10005AB10B4A1068033323F003030344094A12
:100D2000934206D8064A136008BD054A0649116079
:100D3000EFE700F0ADFC0C2303604FF0FF30F3E76A
:100D40007C00002000FC002024010020012303601F
:100D5000014B0B60704700BF0400002008B50A4635
:100D60000146024800F004F8FFF7C4FF1020000815
:100D70000FB400B583B004AB53F8042B019380216A
:100D8000064800F0BFFC002803DD0146034800F0E0
:100D900047F803B05DF804EB04B07047840000200E
:100DA00010B5044600F07AFC0146204600F038F801
:100DB0000121024800F034F810BD00BFD420000823
:100DC0002DE9F04385B004460F4643560BB10E465D
:100DD0001EE0042528462146ABBE0446384605B031
:100DE000BDE8F08314F9011B04AA1A4402F8101C90
:100DF0000133AB42F6D304AA1344002203F8102CAB
:100E00004FF00408E94640464946ABBE8046761B93
:100E1000002EE3D03546102E28BF10250023E8E72A
:100E200008B5FFF7CDFF08BD08B500F093F8024AFA
:100E3000024B9A6008BD00BF0000000800ED00E012
:100E4000F8B504460D4617461E462748FFF790FFA3
:100E500021682648FFF78CFF61682548FFF788FF67
:100E6000A1682448FFF784FFE1682348FFF780FF6B
:100E700021692248FFF77CFF61692148FFF778FF6D
:100E8000A1692048FFF774FFE1691F48FFF770FF71
:100E90001E48FFF76DFF29461D48FFF769FF1D4CEF
:100EA000E16A1D48FFF764FF216B1C48FFF760FFF4
:100EB000E16B1B48FFF75CFF15F0800F0AD115F4BA
:100EC000004F0CD11748FFF753FF06991648FFF75C
:100ED0004FFFF8BD39461548FFF74AFFEFE73146A7
:100EE0001348FFF745FFEDE73C2000084C200008C1
:100EF0005C2000086C2000087C2000088C20000882
:100F00009C200008AC200008BC200008CC20000871
:100F1000D820000800ED00E0E8200008F8200008D4
:100F20000821000838210008402100081821000885
:100F30002821000883691A888A4201D0002070475E
:100F40000268033A012A03D8023383610120704703
:100F5000002070470C4B1A6842F001021A60002111
:100F600099601A6822F0847222F480321A60074A6B
:100F70005A601A6822F480221A60D960044B4FF03C
:100F800000629A60704700BF0038024010300024B1
:100F900000ED00E0224B9B6803F00C03042B14D0FF
:100FA000082B16D01BB11F4B1F4A1A6002E01D4BC5
:100FB0001D4A1A601A4B9B68C3F303131B4AD15C8A
:100FC000184A1368CB4013607047164B184A1A60D2
:100FD000F0E7134B5A685B6803F03F0312F4800F8D
:100FE00013D0134AB2FBF3F20D4B5B68C3F38813C3
:100FF00003FB02F30A4A5268C2F301420132520073
:10100000B3FBF2F3074A1360D4E7074AB2FBF3F2EB
:10101000034B5B68C3F3881303FB02F3EAE700BFEB
:10102000003802400C0000200024F4008421000855
:1010300040787D0110B4012812D018B102281DD0CB
:1010400010BC7047144B1868490003248C4020EAF8
:1010500004001860186802FA01F101431960EFE713
:101060000E4B1868490003248C4020EA04001860E5
:10107000186802FA01F101431960E1E7084B1868AA
:10108000490003248C4020EA04001860186802FA22
:1010900001F101431960D3E700000240000402405F
:1010A0000008024002BB01280CD010B1022812D067
:1010B00070471E484369012202FA01F123EA010147
:1010C000416170471A484369012202FA01F123EA9B
:1010D00001014161704717484369012202FA01F199
:1010E00023EA010141617047012A00D070470128BD
:1010F0000BD010B1022810D070470C484369012270
:1011000002FA01F11943416170470948436901221C
:1011100002FA01F11943416170470648436901220F
:1011200002FA01F119434161E0E700BF000002400B
:101130000004024000080240154B1A6842F40022E5
:101140001A601A6842F080021A609A6822F001025E
:101150009A609A6822F002029A600D4B9B6813F025
:10116000040FFAD10A4B9B6813F0080FF5D1084B16
:101170009A689A609A689A609A689A601A6842F0C7
:1011800001021A60024B1B6813F0020FFAD070477D
:10119000003802401F2817D9A0F12003DBB21F2B13
:1011A0001AD9A0F14003DBB21F2B1ED9A0F16003B6
:1011B000DBB21F2B07D811494B6C6038012202FAB1
:1011C00000F01843486470470C490B6B012202FA87
:1011D00000F0184308637047084A536BA0F12001E0
:1011E00001208840184350637047044A136CA0F1F3
:1011F00040010120884018431064704700380240C5
:10120000024A136823F004031360704710E000E003
:1012100008B50C4B19600C4B01221A7000F0C0F994
:10122000014600F00DF900F013FA084B00229A6015
:101230005860DA6842F00202DA601A6842F001028D
:101240001A6008BD1C0100201801002010E000E019
:1012500008B5064B1B6843B19847054B1B7823B96B
:10126000044A136823F00103136008BD1C01002029
:101270001801002010E000E070B594B00024019443
:10128000204B1A6C42F080521A641B6C03F080539E
:101290000193019B02941C4B1A6842F440421A606D
:1012A0001B6803F440430293029B012308930993B4
:1012B0004FF480030F93192310934FF4A8731193E5
:1012C000042612960723139302250E9508A8FFF70C
:1012D00075F90F230393049505944FF480530693F7
:1012E0000794294603A8FFF7D1FBFFF7FBFC074B48
:1012F000A3FB00308009FFF72DF93046FFF740F9D6
:1013000014B070BD0038024000700040D34D621030
:1013100008B5FFF79BF8FFF7AFFFFFF73BFE08BDEF
:1013200038B5254C2368254DEA5C02F00102002106
:101330000846FFF7B7FE2368EA5CC2F340020121CA
:101340000020FFF7AFFE2368EA5CC2F380020221AF
:101350000020FFF7A7FE2368EA5CC2F3C002032166
:101360000020FFF79FFE2368EA5CC2F3001204210D
:101370000020FFF797FE2368EA5CC2F340120521C4
:101380000020FFF78FFE2368EA5CC2F3801206217B
:101390000020FFF787FE2368EA5CD20907210020BE
:1013A000FFF780FE23680133236045F6B162934264
:1013B00001D90022226038BD0401002094210008D8
:1013C00008B5FFF7B9FE0020FFF7E4FEFFF718FFAE
:1013D000012200210846FFF72DFE012211460020C0
:1013E000FFF728FE012202210020FFF723FE012241
:1013F00003210020FFF71EFE012204210020FFF739
:1014000019FE012205210020FFF714FE012206210A
:101410000020FFF70FFE012207210020FFF70AFE40
:1014200002497D20FFF7F4FE002008BD21130008CB
:101430007047000080F0004002E000BF81F00041F2
:1014400042001FBF5FEA410392EA030F7FEA226C6A
:101450007FEA236C6AD04FEA1262D2EB1363C1BFFA
:10146000D218414048404140B8BF5B42192B88BF69
:10147000704710F0004F40F4000020F07F4018BF8C
:10148000404211F0004F41F4000121F07F4118BFAC
:10149000494292EA030F3FD0A2F1010241FA03FC54
:1014A00010EB0C00C3F1200301FA03F100F000433C
:1014B00002D5494260EB4000B0F5000F13D3B0F104
:1014C000807F06D340084FEA310102F10102FE2A73
:1014D00051D2B1F1004F40EBC25008BF20F00100E3
:1014E00040EA03007047490040EB000010F4000F91
:1014F000A2F10102EDD1B0FA80FCACF1080CB2EB24
:101500000C0200FA0CF0AABF00EBC2505242184382
:10151000BCBFD0401843704792F0000F81F4000127
:1015200006BF80F400000132013BB5E74FEA4103FA
:101530007FEA226C18BF7FEA236C21D092EA030F66
:1015400004D092F0000F08BF0846704790EA010FE0
:101550001CBF0020704712F07F4F04D1400028BF0D
:1015600040F00040704712F100723CBF00F50000EF
:10157000704700F0004343F0FE4040F40000704725
:101580007FEA226216BF08467FEA236301464202D1
:1015900006BF5FEA412390EA010F40F480007047E4
:1015A0004FF0000304E000BF10F0004348BF40428A
:1015B0005FEA000C08BF704743F0964301464FF0C6
:1015C00000001CE050EA010208BF70474FF0000322
:1015D0000AE000BF50EA010208BF704711F0004363
:1015E00002D5404261EB41015FEA010C02BF844633
:1015F0000146002043F0B64308BFA3F18053A3F592
:101600000003BCFA8CF2083AA3EBC25310DB01FAD8
:1016100002FC634400FA02FCC2F12002BCF1004F5C
:1016200020FA02F243EB020008BF20F001007047ED
:1016300002F1200201FA02FCC2F1200250EA4C0041
:1016400021FA02F243EB020008BF20EADC70704787
:1016500042000ED2B2F1FE4F0BD34FF09E03B3EB1C
:10166000126209D44FEA002343F0004323FA02F048
:1016700070474FF00000704712F1610F01D1420234
:1016800002D14FF0FF3070474FF00000704700BFAD
:10169000014B1868704700BF10000020034613F884
:1016A000012B002AFBD1181A0138704730B5141EDF
:1016B00005469BB0184605DA8B232B604FF0FF30B0
:1016C0001BB030BD4FF40273ADF80C3014BF04F101
:1016D000FF332346029305934FF6FF730091049165
:1016E000ADF80E3002461E9B6946284600F072F89F
:1016F000431CBCBF8B232B60002CE1D0009B00223D
:101700001A70DDE707B5009313460A460146034801
:101710000068FFF7CBFF03B05DF804FB100000206A
:101720002DE9F0478E689E4282460C4690469946C7
:1017300037D88A8912F4906F31D0256809696F1AF9
:101740006569022305EB450595FBF3F509F10103F6
:101750003B449D4238BF1D46530530D5294600F015
:1017600079FB064650B90C23CAF80030A38943F030
:101770004003A3814FF0FF30BDE8F0873A4621696E
:1017800000F0F6FAA38923F4906343F08003A38169
:10179000266165613E44ED1B2660A5604E464E45C0
:1017A00000D94E4632464146206800F0ECFAA36864
:1017B0009B1BA36023681E4426600020DCE72A46AA
:1017C00000F0A2FB06460028E2D12169504600F055
:1017D000F3FAC8E72DE9F04F9DB0804603938B895B
:1017E0001D060C4616460FD50B696BB9402100F05B
:1017F00031FB2060206128B90C23C8F800304FF07D
:10180000FF30C7E0402363610023099320238DF854
:10181000293030238DF82A304FF0010B37463D46F2
:1018200015F8013B0BB1252B3ED1B7EB060A0BD0C7
:101830005346324621464046FFF772FF013000F022
:10184000A480099B534409933B78002B00F09D80B2
:1018500000234FF0FF32CDE90523049307938DF861
:1018600053301A932F46052217F8011B4F4800F0FA
:101870002FFA049BD0B9D90644BF20228DF85320FB
:101880001A0744BF2B228DF853202A782A2A15D014
:10189000079A2F4600200A25394611F8013B303BB4
:1018A000092B4DD9B8B10FE02F46B8E73F4A801A4F
:1018B0000BFA00F0184304903D46D3E7039A111D3C
:1018C00012680391002A01DB079204E0524243F0C0
:1018D0000203079204933B782E2B0CD17B782A2BA2
:1018E00033D1039B1A1D1B680392002BB8BF4FF026
:1018F000FF33023705932E4D39780322284600F036
:10190000E7F938B14023401B03FA00F0049B03437E
:1019100001370493397827488DF8281006227E1C59
:1019200000F0D6F9002838D0234B13BB039B0733B4
:1019300023F0070308330393099B4B4409936DE796
:1019400005FB023201200F46A6E70023013705936D
:1019500019460A25384610F8012B303A092A03D9CE
:10196000002BC8D00591C6E705FB012101230746DE
:10197000F0E703AB00932246104B04A94046AFF3B7
:101980000080B0F1FF3F8146D6D1A3895B063FF5C9
:1019900036AF09981DB0BDE8F08F03AB0093224627
:1019A000064B04A9404600F081F8EAE746800008AB
:1019B0004C8000085080000800000000211700083B
:1019C0002DE9F04791461F468A680B69DDF82080B3
:1019D0009342B8BF1346C9F8003091F84320064639
:1019E0000C4612B10133C9F800302368990642BF92
:1019F000D9F800300233C9F80030256815F0060523
:101A000007D104F1190AE368D9F800209B1AAB4208
:101A100028DC94F843302268003318BF0123920673
:101A20002DD404F1430239463046C047013020D05E
:101A30002368E568D9F8002003F00603042B08BFEB
:101A4000AD1AA36822690CBF25EAE575002593420B
:101A5000C4BF9B1AED184FF000091A344D451AD136
:101A6000002008E00123524639463046C047013085
:101A700003D14FF0FF30BDE8F0870135C3E7E1182F
:101A80005A1C302081F84300224494F8451082F813
:101A900043100233C5E70123224639463046C0478A
:101AA0000130E6D009F10109D8E700002DE9F04343
:101AB00001F1430C0C46097E85B06E291746064697
:101AC00098460C9A00F0B38022D8632936D00AD801
:101AD000002900F0B980582900F0838004F1420504
:101AE00084F8421032E0642901D06929F6D12068D7
:101AF0001368050603F104012AD51B681160002B49
:101B000003DA2D225B4284F843206F480A2239E031
:101B1000732900F09D8008D86F2920D07029DDD16D
:101B2000236843F02003236003E0752917D0782948
:101B3000D4D1782384F84530644855E01368191DE2
:101B40001B68116004F1420584F8423001238CE0E7
:101B50001B68116010F0400F18BF1BB2CFE713686D
:101B60002568181D1060280601D51B6802E068066C
:101B7000FBD51B8854486F2914BF0A220822002174
:101B800084F843106568A560002DC0F29580216837
:101B900021F004012160002B3DD1002D40F08E800A
:101BA0006546082A0BD12368DB0708D523696268DC
:101BB0009A42DEBF302305F8013C05F1FF35ACEB5E
:101BC00005032361CDF800803B4603AA2146304639
:101BD000FFF7F6FE01304DD14FF0FF3005B0BDE804
:101BE000F083394884F84510136821681D1D1B686F
:101BF00015600A060BD5CA0744BF41F020012160D9
:101C00001BB9226822F0200222601022B7E74D069D
:101C100048BF9BB2EFE76546B3FBF2F102FB11331D
:101C2000C35C05F8013D0B460029F5D1B9E71368FF
:101C300025686169181D106028061B6801D51960A8
:101C400002E06A06FBD51980002323616546B9E7E7
:101C50001368191D11601D6862680021284600F094
:101C600037F808B1401B606063682361002384F883
:101C70004330A7E723692A4639463046C04701303A
:101C8000AAD023689B0713D4E068039B9842B8BF8F
:101C90001846A3E701234A4639463046C04701307B
:101CA0009AD00135E368039A9B1AAB42F2DCEBE76A
:101CB000002504F11909F5E7002BACD1037884F86D
:101CC000423004F142056CE7578000086880000844
:101CD00001F0FF01102A2BDB10F0070F08D010F8DD
:101CE000013B013A8B422DD010F0070F42B3F6D1E1
:101CF000F0B441EA012141EA014122F007047FF0FA
:101D000000070023F0E80256083C85EA010586EA50
:101D1000010685FA47F5A3FA87F586FA47F6A5FA8C
:101D200087F68EB9EED1F0BC01F0FF0102F0070298
:101D300032B110F8013B013A83EA010313B1F8D143
:101D40000020704701387047002D06BF3546033824
:101D5000073815F0010F07D1013015F4807F02BF5D
:101D6000013015F4C03F0130F0BC0138704700BFAE
:101D700010B5431E0A44914200D110BD11F8014B29
:101D800003F8014FF7E7884210B501EB020307D8CB
:101D9000421E99420AD011F8014B02F8014FF8E7B0
:101DA0008342F5D98118D21AD34200D110BD13F85D
:101DB000014D01F8014DF7E738B50546002945D03A
:101DC00051F8043C0C1F002BB8BFE41800F0D2F807
:101DD0001F4A1368104633B9636014602846BDE893
:101DE000384000F0C8B8A3420CD921686218934269
:101DF00004BF1A685B68636004BF52182260046005
:101E0000ECE713465A680AB1A242FAD91968581881
:101E1000A0420BD120680144581882421960DDD1DC
:101E2000106852685A6001441960D7E702D90C2340
:101E30002B60D3E7206821188A4204BF11685268DA
:101E4000626004BF091821605C60C7E738BD00BF4D
:101E50000801002070B5CD1C25F0030508350C2DB8
:101E600038BF0C25002D064601DBA94203D90C23FF
:101E70003360002070BD00F07DF8214A14682146CF
:101E800091B9204C23681BB9304600F063F82060FC
:101E90002946304600F05EF8431C24D10C23336001
:101EA000304600F068F8E4E70B685B1B18D40B2B96
:101EB0000FD90B60CD50CC18304600F05CF804F11F
:101EC0000B00231D20F00700C31AD3D05A42E25062
:101ED000D0E78C424B6816BF636013600C46EBE79B
:101EE0000C464968CCE7C41C24F00304A04205D08A
:101EF000211A304600F02EF80130CFD02560DBE704
:101F0000080100200C010020F8B5074614460E46D3
:101F100021B91146BDE8F840FFF79CBF22B9FFF791
:101F20004BFF25462846F8BD00F026F8A0420FD208
:101F300021463846FFF78EFF05460028F2D031468D
:101F40002246FFF715FF31463846FFF735FFE9E730
:101F50003546E7E738B5064C0023054608462360BA
:101F6000FEF7D2FE431C02D1236803B12B6038BDBB
:101F7000140100207047704751F8043C181F002BD3
:101F8000BCBF0B58C01870472E2E2F737973746521
:101F90006D2F7372632F73746D333266342D6861E5
:101FA0006C2F73746D3332663478785F68616C5F60
:101FB000636F727465782E630000000000000000FB
:101FC0000102030401020304060708092E2E2F73E1
:101FD000797374656D2F7372632F73746D3332660A
:101FE000342D68616C2F73746D3332663478785F8A
:101FF00068616C5F7263632E6300000061626F72E0
:102000007428292C2065786974696E672E2E2E003D
:102010006173736572745F706172616D28292066E7
:1020200061696C65643A2066696C652022257322BB
:102030002C206C696E652025640A0000537461636E
:102040006B206672616D653A0A00000020523020F4
:102050003D2020253038580A000000002052312051
:102060003D2020253038580A000000002052322040
:102070003D2020253038580A00000000205233202F
:102080003D2020253038580A00000000205231320F
:10209000203D20253038580A00000000204C5220F6
:1020A0003D2020253038580A0000000020504320F1
:1020B0003D2020253038580A00000000205053529F
:1020C000203D20253038580A000000004653522F8A
:1020D0004641523A0A0000002043465352203D2018
:1020E00020253038580A00002048465352203D2011
:1020F00020253038580A00002044465352203D2005
:1021000020253038580A00002041465352203D20F7
:1021100020253038580A0000204D4D464152203DC0
:1021200020253038580A00002042464152203D20E8
:1021300020253038580A00004D6973630A000000FA
:10214000204C522F4558435F52455455524E3D2026
:10215000253038580A0000005B486172644661759A
:102160006C745D0A000000005B4275734661756C1B
:10217000745D0A005B55736167654661756C745DDB
:102180000A0000000000000000000000010203043B
:10219000060708098891908E8784848787868787B9
:1021A00087867D78767577726A696B6D6C66677104
:1021B0007C8590989EA3A19A9793908C817B7B7B42
:1021C00077716B707A7E7F7E7A787B76736F6C71B5
:1021D00074757E888D8C88878E929290909094935F
:1021E00088807773787775747068616069747470CB
:1021F00071758090989B9B989A988F87847F7A7747
:10220000777C807E7E82838582766C676D7878723B
:102210006E6C6B6D7382949FA4A5A49E9A90868029
:102220007E80807874787A7870666161636D787D7D
:1022300080817C797A81909797999A948C817E8419
:102240008A8C8C88838484807D77726A605C646900
:10225000696A666B747C8997A1A9AFABA1958B89DC
:1022600087838180797270747E847F756A5F606411
:102270006A72787F828180858A8A8B8A8C8F8D8E24
:10228000909395968C80797980837E766C5E504BA6
:102290004E5D72829198979795918D8C8B89837DF5
:1022A000818686847E797B7E858D8F8D8778685C3C
:1022B000565961708192968E857D818A8E908D8A25
:1022C0008C91918E89817B7272777E7F786F666543
:1022D0006260636D7E94A0A0988F89878481817EDF
:1022E0007B7B818B929089847F8185837F78726EDE
:1022F000675F5A5C5F6A7B8B9B9F99928E8E9290F0
:102300008986868B8E8B837E7A757373787E7D7BD0
:10231000787169625F6373889AA2998E867E7B79F1
:10232000777D8590999E9990847975777D7F7B756F
:10233000737065584C4E5B7590A8B4ADA3928480C1
:102340007B7A7B7E8791938B7D7373777E82858387
:1023500083837A6F625A595D6C8599A1998D8383C5
:10236000858486898E989B968E837E797575767521
:102370006F6C6C6C6A635D636D849CA6A89C918A8B
:10238000817B7876777B8691969388828284888415
:102390007A74727673695C5555586D859BA8A197C0
:1023A000908A8A888282869097958B827D787371D5
:1023B0006E70767A7E7A726A64636A8095A19E9066
:1023C000888076706D717E8D9AA29C9389807D7CC9
:1023D0007D7C7B7A7A7B6F5E4E48546B8BA4B1AD6B
:1023E000A19484787270727B87979E9584757076BD
:1023F0007B7C7E80868C8C80705F5558657F98A131
:102400009A8B7F7A7D7E7C7C818E9C9F988C827E4D
:102410007C7976746F6D6F71716D66656F7F9AA947
:10242000AAA18F8176706E6E6F75808C94958F8661
:10243000848383837E7D7D7F7F76685C585E6B843A
:1024400098A4A69A8F867D7B7571768291999387E1
:102450007D7976726F70777F858983776C62677418
:102460008DA0A69F8D82786E6B666773849AA7A2F3
:1024700096877C7876797A7776777972655B57621A
:10248000758EA8B3B1A28E7F75716F6D717C8D97BB
:102490009185797376797F85868A8B867B6B625D81
:1024A000616D7F969F9B91847F7D7A7B77798997F9
:1024B000A09B8B7D7271747777716E737B807D7753
:1024C000726D758497A09D93877E7875746D69731E
:1024D00085979F96897F7B82848079757B7E7D77C7
:1024E0006D655D606D8498A09F958B86827C736E10
:1024F000798D9C9F9280726C707477797A818789CC
:10250000877D7064636F829498958A7B716B696E26
:10251000748399A7ADA48E7E7475797675767A7F6B
:102520007C766F69696D7686959EA0958578706CCE
:102530006C6C768994978E82808283857F7F838777
:102540008B877F766C66666C7783898D8C88827AC0
:102550007473757E8F979A9489827D79776D676A97
:1025600075879391887C7474767C878F9491857A33
:10257000736C6863677B8E9B9E97908C867E746E6F
:10258000747C84857E7771676568758E9EA5A19140
:1025900083796F6D6B71828C91938A82796F6E6E85
:1025A00073808D96978D7F736A6A6F75828F95930E
:1025B00084746E6A6D717787939B9C928A867D7511
:1025C0006E6E79848A897F75726F6C6E7788959A42
:1025D000978B807B756F6A6F7C858C90918E8981DB
:1025E0007A75767F868A868079746F6D6E74828F35
:1025F00097958B827D78756F717C8791948E888298
:1026000079736E727F898D8A847D78706B686D7E38
:102610008F97948B85827C756D6E7A868F9492915C
:102620008C80756E747F8484807B77746E6B6C7322
:1026300083919696928C887F766D6C76828B8E8B4A
:102640008A867F7A777C848786837D78736A6665DD
:102650006D7D8C92918D8B8A847A72737E888E8F39
:102660008C8C887E76747B8485817F7A75706966B0
:102670006973808C909293908A80736D707C878D43
:102680008F90928F88807E8082807E7D7B776E6740
:1026900063656E79838B919798938879706F787E54
:1026A0008283868D8F8C88868786817E7C7A756E04
:1026B0006865686F777F848A919492897D76777C4C
:1026C00080807F82888B8A8A8B8B89867F797672DD
:1026D0006D67656A717880878A8D8F8C8B827C7D2F
:1026E0007E7E7B797C8285868A8E8F8C83817D77C6
:1026F00077756F6C6F73757C7E7B8286828387872C
:102700008A8E908D87817873757677797B818686BE
:10271000878786807F817F7B7779807F7C7E7F80C3
:10272000868B8A8784818387898B8D877F7A74746F
:1027300076777670747A8287827E7E7C797E817CE1
:10274000797F8383817F7F81807F81838487898C68
:102750008D89837C7A7B7D7973777F828687857E7E
:102760007675787B7F807E7C797C838078716F73CF
:102770007C8B90908D8B908A8080838481898F8BD5
:10278000837D7870696968696E757F848582817CD4
:10279000777B7E7F7E787D878C9090908E959796C4
:1027A0009189867C7571686767696C6F76808988A6
:1027B000878987837E7C7D7D7D7E85898A90948FC5
:1027C000847B7B7977726E7070768491949593890F
:1027D000857E737570656368717E87888C959CA112
:1027E0009F9A90827A71695B545C6978818B969527
:1027F00096938F908575737470757A797B7B7D86DF
:1028000089857F7B777776747B7F8188919D9E9782
:102810008E868279716F716F69666D758088919807
:102820009696968F81786A615B586379838B8F8CDB
:102830008C9196948E8180848884807B757578775E
:102840008088857A7073757A756F72767E939F9B98
:10285000908681868477797B746F72777F86868293
:1028600082818486847E7775737475767D898E8D7A
:102870008D979D9E93827C7A7C7E7E7572757B831C
:10288000827B776C62606876797771717B8A999EBA
:10289000988D8C9499968B807B7779797D848582CD
:1028A0007F84857D78706766686C7376747C8B91A5
:1028B000918C898F8F87828989878B867F7B7D7DAD
:1028C0007F7E7B77746B6768666766666D8395A1AC
:1028D000A8A69D999287807C767881807E7C7B7C7F
:1028E0007D7C7D7D777073787677746E6E727B8C6D
:1028F00095908B888B8B8B898382868C9597918A18
:102900008282837F7469605B5C6771787B797F8D7D
:10291000979BA09D978E8584817A76757171787E5C
:102920008485807A76706E71777A7C797B828281F9
:10293000848584868B8D8F8E867E7A7C7E8791902F
:102940008F8E8982705B5150545E6C778185868A48
:102950008D8E8E9195959593938D7F777175797DF9
:10296000858E93958A7A6F676269717377777B82B8
:102970008581838683818686898A85848281818513
:1029800089888C8C887B6D646165696E727C858CAE
:102990009295959A97948F898783807771707375D4
:1029A00075747D858A8980746A6768717173777EB2
:1029B000878B898D918F8B8A8D90958E88867E7A74
:1029C0007D807D8487837E7064605F6061656F7BDE
:1029D000898D8E8F909192969190938F8780797444
:1029E000747070798389897C706B68697279777F7C
:1029F00086888A868587878687898E929188827D58
:102A00007B7C8387888A8983786C66646464616868
:102A100076848989898A8E93999B98928F89817D02
:102A20007B7674747782888A8579716E6F71727221
:102A3000767E838688878585808085898A8B858157
:102A4000817B787A7B7E81818383797072706B66FB
:102A5000666E798690979999999A9C99918C8880BD
:102A600077716F6B6A696D757A81817C797A777716
:102A7000757574747A7F85878A8C8C8B93989998F6
:102A80009187827D7B80828280807D77706A655E9F
:102A90005A5F676F78828A8F9193989B9897928BF1
:102AA0008B867A74736D6D6F78848C8A8A8985823F
:102AB000827A6F6B686C777C7D858A8C929191921B
:102AC0008D8987817E80817D7B7D7D7F7E7D7B760C
:102AD00072716B6766686E77818A93989D9D9993F2
:102AE000918B827D797879746D70777C7F86888709
:102AF0008886847B6D6565666A737B8692949495FF
:102B000093918F867F7F7C787A777678797F8282BF
:102B10008689857D736C6B6E6F737A8289959E9CB6
:102B200099938E8E8680807A706A6A6A6F787B7FCE
:102B300085888D928B7F776A6568686E7A81858ECD
:102B400093959A958C8E8D8A8886807C7773747322
:102B5000717A838788807B75706967676C77838EED
:102B6000969A98938D86827F79797A737478797A38
:102B70007C8087909397968C837C736966676C736F
:102B8000757883888A8E91908F8D8A888279746E09
:102B9000696A727B838783807D7C7B76737479809E
:102BA00089929494908B8B898284867F79797775CA
:102BB000716B7079818992908D887F7A776B646967
:102BC0006B71797F828C9193929090928F8B888099
:102BD00076706E6B70777F8485858586827F7C7644
:102BE0007271777E8182888B878486888A8B8686BD
:102BF0008179777776787D8084878685837C757008
:102C00006C6D7071727A86919694938E8E92969472
:102C10008A7F77736E6D717476787C818789868000
:102C200077707073706D7179828B8C8B8A8A8E8EBF
:102C30008B86817B787A7D7F84888A8A858384816C
:102C4000787270726F686D747B848B8B8B8D9199A9
:102C5000978D837C7372706F7377797A7F828482A9
:102C60007E7B7E7F7F7C7A7E81878D8E89878C902C
:102C70008F8A817B76737372737579818488898773
:102C80008077706F6E6D6B6A6F78848F93908F9181
:102C9000999F9E958C86817D7875736F6C727A8111
:102CA000827E7A7874717677787D82898E8A888838
:102CB000888885828284817F7E7A797A7D82878AFC
:102CC0008986827C736A66605F6875828D93969848
:102CD00097999C958A847F7E7D78716B6B6B707AF7
:102CE0007F7F7D7F7D7A797B7A737378828A8C8D02
:102CF0008B8C93928D89857F7B7F807F7D7C7E828C
:102D000084807D7C736A686A6B6B6E747B828B9443
:102D10009A9DA0A19B948E857E776E69676A6E737B
:102D200077797F8384807B777475797D7F82898EC4
:102D30008F919396928A8683838384807A76757A3C
:102D40007C79757675706E6E6E6D6B6B7078838C3A
:102D500095999EA19F9D9A9086817E7876747278CF
:102D60007875787A7A7671707072757C7E7C7F84E3
:102D7000898B909494908B8784827F7A7674727713
:102D80007B7D7D7E7D7B78727072777F818283868A
:102D9000898D9295929191908D88837D77706D70D9
:102DA0007473706F72727171716F727C858D919096
:102DB0008D8D90949595938E878586827C757273A0
:102DC000777A7B7B787471716D696E757B8184878E
:102DD00087868A919495969591908E88837B73715E
:102DE0007171716F6A67696B6E71767C84919B9E5D
:102DF000978F8D8D8988888482818183847F79757E
:102E00007474777979767271737370707077818664
:102E100087898A8A8C8F949491919190918D837AED
:102E2000716D6C6D6A6462646B72797E848890994E
:102E30009C9A958E8783807D7D80808180807F7B3A
:102E400078747476787B7A736D6F7576777C858FFE
:102E5000959796938C898984848A8F929490877DA4
:102E600070645D5C61686C6C6C7175787A7F858B61
:102E7000929CA19E9690887D797B80858A8F919087
:102E80008A81776D67676C6F6C6B707577797D8001
:102E9000868A909392928E867F7D7D80878E908B9E
:102EA000837E776D6563696C6C70787E83888989B1
:102EB000888A919796938F887F7A77767A7E8385B2
:102EC0008685827B726A66696C7076797B8184877D
:102ED0008887898C8C9195918A837E7A7B81898D74
:102EE0008B87858178706A686765666F777D858A6C
:102EF0008986878D939695918C88827D787B808159
:102F00007F7E7D787775706C6D6E73787A7C828940
:102F10008A88898B8D8C8B8D8A8482807C7C828749
:102F20008A8A87827D79746F6D6B6966666A6F784D
:102F3000808586888D949A9B98938C847E7B7C7EFA
:102F40007E7C7C7F7F7E7F7D777472737778787DDF
:102F50008281807F80858886858787898783807F37
:102F60007F83857F7C7B7A7A787170706C6B7076EA
:102F70007E878D8E9092969B9B96938E847D79759D
:102F80007473727374777C7D7F7F7A7574706F71E0
:102F9000757B7F7F7E83898D909192949493928F9D
:102FA0008784837F7D797679777372726E6C6967B7
:102FB0006B737A7F84868A8F929394918F8E8983A4
:102FC0007E7B7B79747174787F878885837D777643
:102FD000726E7274737980888E8E8B8D8D8C8F90CB
:102FE0008B88837F7C7875747576787A7B7D7C742A
:102FF00070716F7074767880888F969591929491A5
:103000008E8A85837F7874737376797D81807E81E3
:103010007F7975716D6E73767B838B8E8F8E9094B6
:10302000918D89837F7E7A747375797D7F808280AC
:103030007F7F7B75737071787D7E84898B8E919490
:1030400093908B8987837E7773727375787B7C7E90
:103050008081827F77726F6B696D747B80848A90C8
:10306000959898968F8B898886837F7E7D7B7976ED
:1030700075787774747270737573767C7F828789C4
:103080008C908C88858483817A7676787B8185871D
:1030900087888F939089837B73706F6E6E6F707368
:1030A0007A808688888B8C8D8F8E8A85817F7B77CE
:1030B00074777B7E807C7A7A79767576757982886A
:1030C0008C8D8F8E89848181807F7D7A7A7F8383C6
:1030D0007E7B7C81878A8884817C7673726F6C6D3D
:1030E00071778188898A8888888A8784838285869F
:1030F000837E7D808383858483807C76716F6E7010
:10310000757C8084878784838283828180818486A2
:1031100085827E7E808485847E7B78736D696A6C0F
:10312000727983898F908E8D8B8C8D8A868584852C
:10313000837F7976767A81878885807C79736F6BD7
:10314000696E777D848C8C8782818385827F81857F
:10315000898B8B8A898686888A87837D746C686967
:10316000696D73787C828789898989888786868654
:10317000878987827E7B7A7C7C7A787673706F71A0
:10318000727379838B8F91908D8C8B888482807EF3
:103190007F7F8082817E7B7D818383817E78736C5B
:1031A0006866686C737A818686868889898887894B
:1031B0008E929497958F89837E7B7876726D6B6BF8
:1031C0006B6C6F73797E838588888887858688880D
:1031D00087858587898A8783807D7D7E7B777471EB
:1031E0006E6C6E757B7F82848383878A88868788EE
:1031F0008A8B8A8A8A88837F7C7A777572707170ED
:103200007072777D8185898B898685817B797A7ECD
:103210008285878B8E9091908A837E7976716E6E8F
:103220006D6D6E72787E828482838586898A8989B3
:103230008A8B8B8A898887827B7572716D6A686BCD
:103240006C6F767C82888D908F8E8E8D8A85807C47
:103250007D818385888B8B8B8B89857F7873716F5C
:103260006E6B6B6D70777F84827F7C7D7D7E7E81CF
:10327000878B8E92979998948C84807E7C7A7571D6
:103280006D6B6B6F73777B80848888868583817F85
:103290007F808386888B8B8A87827F7C7876737425
:1032A00074737375797D84898C8C8A878785807D1A
:1032B0007E7F808284898A8A8A86807A767271701B
:1032C0006F6D6D6F70767F85878787868788868329
:1032D000828385878A8C8D8D8C87827E7A767371C6
:1032E0007071717276787A7D808485838282828320
:1032F00084868787878A8E908F8D86807B756F689E
:103300006566696C71767F898F92928F8B8A8783CD
:10331000807D7D7F818487898A8987837F7A787899
:10332000777574737273767B7E80828283848481E6
:103330007E7F818384868A8F918F8B87847E777549
:1033400072716F70707275797F868B8E8E8A8988A4
:103350008684807C79797C8285868683807E7D7A6E
:1033600076716D6C6F7173777C848B91949492906D
:103370008D8B88858382807F8080807F7C78747548
:103380007778777473727478797C7F808286898885
:103390008684858786848283878B8D8E8C8A8784BA
:1033A000817B74706B68696C7074797F85898B8B95
:1033B0008C8E8F8C87837F7D7C7C7D7F7F7F7F7EE3
:1033C0007F7F7E7D7C7A79797B7C7C7D7F80828427
:1033D000868787898987848281807E7F8282807CBC
:1033E0007C7D7C7A777473727376797B7D8083863B
:1033F00088898987888886827E7E7E7F828384858D
:10340000878785817F7A75727171737376797E8013
:1034100081848A8C8E908F8C898885807C79767562
:10342000767778797A7D7D7B7A7B7E7E7E7D7F82E2
:10343000838282838587878686868583828382814D
:103440008281848583807B77747170707174777AE0
:103450007B7E81838586888A8C8A888886847F7E25
:10346000808180808284848381807E7B7978777676
:10347000767474777A7F8384858788888886827C4F
:10348000797A7B7B7A7B7C7E807F7F82828081825F
:1034900084848280808283828182827F7E7D7C7B25
:1034A000797B7D808385858481807E7C7976777841
:1034B00077777777787A7E82878D91929493908CC4
:1034C000857F7C7A7877787A7B7D7C7D7E7D7B7A40
:1034D0007A7A7B7A7B7C7B7B7D8081818385878800
:1034E000868484848584838383828282817F7A79BF
:1034F000797878767677797B7E81828386888885ED
:103500008383817F7D7F818181828485858583819D
:10351000807E7A75716F6F6F71757A7F82878C8DFF
:103520008E8D8A8685858483817F7F7F7F807F7E65
:103530007E7E7F807E7C7B7977797C7B7A797B7DD0
:103540007E7D7C7C7D808387888686878988888647
:1035500083838483807A7571707374777A7E8386AF
:103560008787878785827F7E7F807E7C7D8083833F
:1035700082838483817E7B78767475787B7B7B7B8A
:103580007D8185868888898A8C8C888382828383E2
:10359000817F7E7E7D7D7C7975737577797B7B7A83
:1035A000797A7D7F7F7F808082817F818386898C0D
:1035B000909191918E8B857E76706F6F6E70717425
:1035C0007676767B8183868686868683807D7C7D03
:1035D0007E8083868889888785827C7A7B7C7E7ED4
:1035E0007B7977787A7A797A7D8183828180818309
:1035F00085858687898B8C89847F797472737678C8
:10360000797B7C7E808282828483817E7C7C7C7CD0
:103610007C7E83898D8F8F8E8B88837E7B78787775
:103620007879787675797C7F818587878683817FB5
:103630007C7A7C7F828385858582807E7B79797C9C
:103640007E7E7E7F80818181808183817F7B787A8D
:103650007B7C7F8185898F908F8A85807C78767549
:10366000747272747779797B7E8184868683828393
:10367000817D7C7E8286888A8B8A888583807D7D19
:103680007E7E7C7C7C7B7A79797B7C7D7E7F7E7E76
:103690007D7B7A7B7D8083888C8C8A86837F7B7A16
:1036A0007B7B7C7E818486868584838282817F7D0C
:1036B0007C7A7979797B7D8085878785817E7D7B22
:1036C0007B7B7A797A7B7D7F807E7E828485848510
:1036D00087878584838383838383827F7E7B7877D8
:1036E00078797877787B7D7E8182848584807E7FFF
:1036F0007E7D7C7D808383858889888684807D7BB0
:103700007A7A7978797A7C7D7D7E80828383807EE7
:103710007F807F7E8183848383868685827F7D7D93
:103720007E7F7F7D7B7A7A7A7C7C7C7B7D80807FCC
:103730007D7B7A7C7F838587898A8A888784807C61
:103740007B7C7D7C7B7C7D7E7E7E8083858483818B
:103750007F7C7A78797A7B7D7F8082848382818086
:103760007F7F8081828282838583807F7F807F7E4E
:103770007D7F7D7D7E8083858582828281807D7B49
:103780007C7D7C7E7E7C7B7B797A7A7C7E7F81836C
:103790008583807E7F828485868786868584807DFA
:1037A0007A7B7D7E7F7C7C7D7F807E7E7D7D7C7C48
:1037B0007D7E7C7C7C7D7F8182818180807F7F8219
:1037C000838382838586878582817F7D7D7D7B79EA
:1037D0007B7D7E7F807F7F8182817F7E7E7D7D7D00
:1037E0007B7C7E808283848585838180807F7D7DD4
:1037F000808282807F7F7F80818283807F7F7F7DC8
:103800007C7B7A7B7D8081838383837F7D7D7B7DD1
:103810007E8082838485858584817E7B7A787776B5
:1038200077797D7C7D8184878988868481807E7B91
:103830007A7B7D7E7F7F7F7F82838684818181808A
:103840007F7D7D7D7C7D7D7E7F7E7D7C7B7C7B7AAC
:103850007B7F8484818183858787868482817F7C46
:103860007B7A7B7A7C7E8284878888888482817D4B
:103870007877777A7A797B7D808282807F7D7D7C84
:103880007B7C7F82807F808084868584848586851A
:10389000848281817F7E7E7D7C7D8082817D7D7C36
:1038A0007A7978797A797A7C7F838584828181813B
:1038B0007F7F8082858280818285868684828282E3
:1038C0007E7C797778787778797C8183858281822C
:1038D00082817F7F7F7F7E7D7D7E808181807F7FF3
:1038E0007F7F818283837F7D7E7F817F7F7F807FDB
:1038F0008082828282807F7D7B797B7E81848382CD
:103900008283807E7D7D7D7B7B7D80818382807FC5
:103910007E7D7F808284837F7F7F808180818181A3
:10392000818182807E7E7D7D7B797A7C7E818382AF
:103930008384858686868582807D7A7A797A7A798B
:10394000797B7D80838385817F7F807F7B7C7E7F89
:103950008082828383838483817E7C7F82858B8740
:103960008181807F7A7879777678797B7B7A7C7EA3
:103970007B767B7E82878D918E8A87827F7F808017
:103980007A7A8081838786868582817F7B79787C3D
:1039900075717777767D8185858585807E7E80824D
:1039A0007E7A7D7E81898889878383837F7D8081FC
:1039B0007C777C79798081838586837F7A7A7E8122
:1039C0007F787B7B7F848788888784837F7E7C7BEE
:1039D00077737371757E84878D8E8C8C87838182DB
:1039E0007E797A75747C8083868582807E7C7D7FFB
:1039F0007B777673757B7E7F8285858684818284E2
:103A0000807C7C76767C8386898B88898885818298
:103A10007C76726D6D71787B82878A8A88858387D0
:103A200081807E797A80868688898888878380816C
:103A30007A76736E6C71777D84898D8B8B898685A0
:103A40007E7A787474787E8387888989888585886A
:103A5000837F7D75717579797A7C7E81838181839D
:103A60007F7C7B7774777B8187898C8B8B888A8A34
:103A7000817C7A767072757A808486888B87878954
:103A800084807F797273777D82848586878484863B
:103A9000837E7B75717373767A7D81868785888C4A
:103AA0008B8584807A797B808488878787827F80F2
:103AB000807D7C79737274787C7D7B7F848384873E
:103AC00086817F79757473777E868990928D8B8ECF
:103AD0008E87817872706F717478797D807F7F8333
:103AE000848384817E79797D8387848689878485B0
:103AF00084828079757375767A7F808489878387DD
:103B00008685827C79757473787F80858989888BB6
:103B1000898887837E777373787D7B7A7F7F7F83C5
:103B2000858685817C777675777B7E838C8D898B86
:103B30008B8A877E76717272777C7C7D82817E81B2
:103B40008181838584827E787B818280848585885B
:103B50008787837F7874706F73777A7D8485848399
:103B600084878886817E7C7A7B7F8081878887892D
:103B70008B8B8986817B767070777B7B7F807F8162
:103B80008282807E7C7A78777A7E7E7F868A8C8C31
:103B90008C8D908E867F787172787B7C838280801A
:103BA00081807E7D7C7C7C7A797E7F818281818030
:103BB00084868887817C77717075747880878B8C18
:103BC0008C8A8C8D88817D767479797A7B7C7D7DF9
:103BD00080838688868380787577777B80818182F1
:103BE000838483827F7C7B787981818185888988C1
:103BF0008785878989847D736E706F73797D7E81F7
:103C0000828488878684837D7C7F7D7D8284818099
:103C10007F8084888986847975767674767A7D81CA
:103C20008385858685848178767B7C7E8386848285
:103C3000818081838283847F7A7A78767B81818197
:103C40008183858683807E767375797B7F82848588
:103C500084838282848A8A817B7A7976777A7C7D72
:103C60007E808387878887817D7D7F7E8085868330
:103C7000817E7C7D7A7C7E7975747474787C808199
:103C800084868A8B888B8C847C7A7A7B7E818586FD
:103C9000868382827E7E7F7B78797977767A7F7E53
:103CA0007D7C7D807F8284807B7A7B7C7F8487881B
:103CB0008B8B8C8C858487837C79777575777A7C00
:103CC0007E7D7D80808387847F7D7C7C7B7E8386F8
:103CD000868384858280807C77767576777C7F8307
:103CE0008585888A8786888780797676777C7F82C3
:103CF000858687858281817E797677787778797EE7
:103D0000817E808283858787837F7D7B7A7E8083A7
:103D100085838688878483827F7A77757276787CBC
:103D20007E7E808381828786837D7D7D7D807E838C
:103D30008889888A888786837D74726F6D6F7379AE
:103D40007D808387878787888985827E7C7E7F8048
:103D5000817F818584838687837F7D7B797977796D
:103D60007E8080817E7D80807F7B7A7877777A8085
:103D70008486878B8B8C8D8A86827F78747272752D
:103D8000797B7D82838485898682817C7C7C7D7C35
:103D90007F80838482808083807E7B787675747850
:103DA0007D7D818486878988868685807C7D7C80F0
:103DB0008485858484828284847F7D7A7978757312
:103DC00073757B7F808080848584837D7C7C7C7E12
:103DD0008384878A8B8B8B8B8784837F7A787474B8
:103DE00077777A7A7C7D7E7F80807F7D7B7C7D810A
:103DF00082828689898685848583817D7A7A7779AE
:103E00007A7C7C7E808183858481817E7D7A7879CD
:103E10007B7E8184848484858383827E7E7D7C7E98
:103E20007F7C7D80838282807F82807E7B777375BA
:103E3000787B7F8286888A8C8A868380807F7A7A64
:103E40007B7D7D7E7F7D7D7F808183807F7E7C7E8C
:103E5000808280828687858581807E797977767772
:103E60007B7C7E808284848787878581817F797748
:103E7000777A7D7F848383878889878381807D7C2F
:103E80007E7F7C7B7D807F7F7E7C7D7B7D7C77756C
:103E9000777B7D8184858588898B87817F7F7F7C07
:103EA0007E808183858682818182807E7D7B797719
:103EB000787979787A7D81828183828180807D782A
:103EC0007A7E7F8084848485868A8A878483837FC0
:103ED0007B79787A7C7C7D7A7B81817D7B7B79792B
:103EE0007C7F818283828586848583808080807BBD
:103EF000787A7A7B7F82848484888985807D7B7BC5
:103F00007B7C7B7D808082817C7E828181838380BB
:103F10008081807E7E7D7E808182827F7E7E7D7CB0
:103F2000787A7C7E808284848385888784817F7E82
:103F30007E7D79787B7E80807E7E828381807F7D9E
:103F40007B7D7F8081828282858684807E7D7D7B71
:103F50007A7B7A7C7B7C807F7E8084868484817C73
:103F60007D7E7C7B7B7F8384848484858584838140
:103F70007F7E7E7E7D7D7E79797D80807E7F7E7B6B
:103F80007979787A7B7D82838486878A898787801E
:103F90007D7F7F807B7C8183828182828282837E1F
:103FA0007A797778797B7F807E818486838283802B
:103FB0007E7C7B7C7C7C7E808080828587898A86F3
:103FC000827F7F7F7D7A7D807F7E7F818080827F00
:103FD0007C7B7A78787A7D7F807F818485838280FC
:103FE0007E7D7A7A7A7A7D8081838789898B8C88B5
:103FF000837D7A7877767779797B7C7E8080818201
:1040000084817F7F7C7C7F8180808283868886829A
:10401000817E7D7B7B7A7B7D7E7E7F8182858686AD
:1040200084817E7B797979797B7D8184868A898593
:104030008684817D7A787A7D7E7E80808083858388
:10404000817F7D7C79797A7A7A7B7E818486898882
:10405000888682807A7779797A7B7F818185888565
:10406000818182817D7B7B7B7E7D7C7E7D8086875E
:1040700085827F7D7977767776777C808286898A5C
:10408000898886827F7A7B7E7E7B7B7F8183888B1B
:10409000898482827E78757676787C7D7F80818542
:1040A00085827E7D7B797A7D7E7C7D7F8184898E11
:1040B0008F8C8B88847F79797977777A7D808285F8
:1040C00087837F7D7F7D79797A7A7D7F7E7F818509
:1040D00089898783807B79797A78787B7F86898BD9
:1040E0008E8C8986847E787777787877777B7D82E7
:1040F0008788868280807E7B797677797D808183D0
:1041000087888785817F7B7B7C7C7D7B7B7D8082B4
:104110008589888785827C797773737474787F82C8
:10412000888B8A8886807E7E7C7B7B7C7D8080817C
:104130008486878786807D7A7877767472767C82AB
:10414000868A8B89898683807D7B7B7C7E7C7E8151
:104150008386878685827E7E807D7B7778797C7F6B
:104160008083858586837E7C7979787A7B7A7D8267
:1041700086888A8A89888482807D7B77777675793C
:10418000808487898A8884807E7C7B79787A7B7D2D
:104190008182818080807D7B7C7A7B7A7A7A7A7D4D
:1041A0008186898C8C8C888684817C7977777879F4
:1041B0007E8386868887807D7B7978777676787B24
:1041C0007F848482838584807E7E7E7E7E7F7F7EE8
:1041D00081888A898B898683827F7D7976757677D7
:1041E000777D80808184848080807E7D7E7E7C7CE3
:1041F0007E838687868584827E7D7D7B7A797B7BC4
:104200007C818584868885838282807F7A797879AB
:104210007A7E8283868685827F7D7D7B7A7D7C7BAC
:104220007C828485848282838380807E7C7B7A7A90
:10423000797B7F848689888583807F7E7C78777789
:10424000797C7F8285878686848280807D7D7F7C65
:104250007A7E81838683807E7D797777767677789C
:104260007C8285878785858483848383838381801B
:104270007E7D7D7E82868887878684817D76757047
:104280006C6D6F78818A8E8A88837B797776777573
:104290007880899092918D8884817E7E7D7E7E7EDD
:1042A000818685817F7D7E7F7F82838485858381F2
:1042B0007C77737373747372747E8C90938A817934
:1042C00073767575777B828E94979288837F7E7BD9
:1042D0007878797B81898B89847D7C7D7B7A767007
:1042E0006E6D6F7075858D94958C887D75746F6F0C
:1042F0006F737F8D979C978E87817D7B7C7F818379
:10430000838385817B7877797C7C7A74716F727214
:10431000808F97988C867E7876716F72768291996D
:104320009A92877D76797D7D7E8183898C8B877E4D
:10433000757275797A74726D70747F90959D93889B
:104340008076756F696C73808F979C998B7F787579
:10435000757575797F8992938F867F7C7B7C7A7562
:104360006C656A6E819094988A847C7474706F72A4
:10437000727F919D9E948B847D79747174797E8710
:104380008B8D8B817C78787A726C69696B7D93A256
:10439000A79482736D70706C6E6F7D92A2ABA79ABA
:1043A000897A7475737271777F888C8B88837D7836
:1043B0007169656160658197ADB19B8C796F717131
:1043C00071706F7B8FA2ABA09080717271747877DF
:1043D000797C82898B867C73716B68645E657F965D
:1043E000A9B0A1927A6E6D686B6D6B7D93A7B3AB2C
:1043F0009C8876726F75797471737B858A867E72FC
:1044000066625C637D91A7A79A927E7B7568646003
:1044100061728AA1AFA89883777B7E84847D7A7B42
:10442000848D8A8071625D585962748D9FA69E95B5
:1044300089827C756E69686E7F94A3A29683777A71
:104440008186878381828485867F716154474D662A
:1044500083A5B4AC9B8677777571665F68809DB1E4
:10446000B5A38C757078848C857D7A7E85867D6E0B
:104470006053484D6789A9B1A3927E787A78746CAD
:104480006A738DA9BCB69E7E6868717E84838181C3
:104490008287887E70604B455B7D9EAFA68D72677C
:1044A0006B767F796B6B7F9CB7BDAB8B6F676E7BD9
:1044B00088867E78798187867A65514D5B7D9FAE4F
:1044C000A389756E727D8075686A7A91A9B19F889B
:1044D000736C78899189807977797A776F60585F82
:1044E0007898AEAE9B8571696E76787878767C8B9D
:1044F000979993857B7B838D918D877E756E6B6598
:10450000616164758B9DA09A928479737376797ECC
:1045100082878B8E8F8C89827D7E8082878780794F
:10452000726F6B696873828C96968C7F79726F74E8
:10453000767A8183868B8F8E8C8D8C888582807D28
:104540007A7774706E6B6B707B87909590898179A8
:1045500074757B7D807F8285868A8D89858783823D
:10456000848686837F77716D67656E7A8488888795
:10457000827D7C7D7E83878686888887878580810B
:10458000817F838789898787857D77736D686D7063
:104590006C696A6C717E868E97958E8C8F908F90E9
:1045A0008E898685848281807D7B7A777574726E30
:1045B000717471717070757C848D8E8E8E8A878A0D
:1045C00090908D8C878286828084817872706E6FE5
:1045D0006F6F6F6F71757A7F85898D9193908C88DD
:1045E0008183888989888482838485827A75726CC4
:1045F0006D706F6B6A6A6A72767D879196999894EE
:10460000908B898B8C8B8C8984827E7875726D6B94
:104610006B6D737A7B75737174797D838A8E9092DA
:104620008C858788888C8F8E8C898584858177702E
:104630006D6B6B6E706F6C6E71727A8288919A9BE3
:104640009A968D87858683828485848382817C780F
:10465000766F696D717374737376797A7F878D8CD9
:104660008D8F8D8B8B8C8B8A8D8F8A86837B7674D6
:104670006F6B696A6B6F777675797C7F848B9194A9
:10468000949590878583807F7E808181807E7D7BED
:1046900076737272737273716E7174767E868E9990
:1046A0009FA09F9991898787838083817F7C767182
:1046B0006A636263646A727675757A7C81868B94AC
:1046C0009A999B9B9896918F8D8A898782807D7815
:1046D000716A6663646566686B6A6A7179828A90DA
:1046E00097999C9E9D989493908C8A88837F7874E8
:1046F00076756F6D6B6A6D6D6E6C6B6D71777F87A4
:104700008F929396959593919395928E8C86817CBA
:104710007770676363656665696C6C70777D848BA1
:10472000949B9B9B97928F8B898B898886848380AF
:104730007E776E696A6B6E6C6D6E6F6D6E747B806A
:10474000899395999A9898969393908B86827E7781
:1047500072716F6A68696D717171706C70777E8645
:104760008E969796969594918A898D8F8C87848062
:104770007B79756D6865676968686A696A6E788251
:1047800089939A9E9E9C99989693938F8B87837D0D
:10479000756F6A666364686F70727476777676791F
:1047A000818893999A96928E8C8B8C8C898683853E
:1047B000827970675E5A5E6A788285847E797A7BB8
:1047C00080868E9497979594918983828283827F45
:1047D0007E786C6156545D6F808C908D857C75758C
:1047E0007B7D818891979B9A9897928B85807E7E1E
:1047F000807C716558515563788B92908880797967
:104800007D82868888888E959B9C93857D7B80831E
:1048100088857362565661758892938A7E76737521
:104820007777777A84909FA8A59E8F807E838685F0
:1048300080786B5E59575F71808B8F8C84817E7915
:104840007573747782919DA29D938A8382848484F8
:1048500082807A71675F616C79848A837B797978E9
:104860007977787D87959CA19F978E847C7A7C7ED2
:104870007C7A776D635F646F819097948B837B7490
:10488000716B6A717C8A96A1A39F978D82838484C1
:10489000807C786E635D5E6777858C89827A7877B5
:1048A0007874747B8292A0A7A39990867F7E7E7E87
:1048B0007D7E7B7369605C64788B9696897A767668
:1048C000746F696C768698A3A39D938B8686868485
:1048D000817C7773685B575F708493968F847D7A51
:1048E000797872747C89979C9B958C87837F81846F
:1048F00085817B73695E585F6F8492968F837A752A
:10490000706E676A7A8B9FADADA2948C8886837B2C
:104910007675767570655B5B667C909894887A771F
:104920007A7B736E7582949FA098918A8887858020
:104930007C7E7F7D766A57525F798F9893877D7CE6
:104940007C7C756B707D92A4A89F948A8889867EF2
:10495000777B7B7B756959525B728D9D9B90847BC5
:1049600079736D62637792A7AEA99C8E8787857DE8
:104970007574798283786653515F7A90958F8780BA
:104980007F8180736A73879CA59F938A8788857CC3
:10499000736F7883877C6B5A4F5C79939A93898184
:1049A0007F81776B60667F9AACABA094908E8A8093
:1049B000746D7380857B69594E566C8692938F8B8C
:1049C00088867B6C63647A93A7A69B94918E8A8178
:1049D00079747A8389877564555361778B93918D48
:1049E0008681796F6C6874889BA3A0989390897F67
:1049F0007472767F84857B6D5E585D6B8395999428
:104A0000908B84766A6061758D9FA49F99958E873F
:104A10007A7070757E888475655B5C6574848B8B39
:104A20008C8B8881746A67778F9CA39F9492948EF5
:104A30007E7472777E8481746458555E6E85969814
:104A40009A978C8474635E677A8D9EA6A39C988ED9
:104A50007F736E727B83857E736B5B576071849707
:104A60009A948E8881756D687283949E9F9A9A93AA
:104A7000847C75767D888582786759535A677B8BED
:104A80009494928B84766B64677E99A6A4A29D967B
:104A90009083736D737B81837F72645A59627184D2
:104AA000909395928A80746763738591989C9D9D7D
:104AB0009588796E727A818280736B6864636E7F89
:104AC000878F908E8783796E697082939B9C9E9965
:104AD000948A7D73757A7E82817C766C5C535D737B
:104AE000899595928A827D7167697483969D9FA24C
:104AF000A69B887872737981807D74695C575E713A
:104B0000808D939393938C7A6C6468798C9393964D
:104B10009E9C8D7D7472757C7C7D7E796D686B6FDB
:104B200078898E899091877B706A6F7C878A8D9552
:104B30009D9D8F8278797E827E7D7F7468625D60C4
:104B40006F7E898C929795897B706F787E7F859335
:104B50009B9F9B8F7E7D7E77747578776F635D6298
:104B6000717D888B8F98988E81736F767979828921
:104B7000919B9B90867F7C7A7472777C766B616266
:104B80006F7B80858C929A978B7D77797B79787D06
:104B9000879197958C8383817B797A7E7E766A650F
:104BA00067686D747880888B908E898A8C888581FF
:104BB0007F868D8A83817F7F80817E81837D7B78E4
:104BC00076787172797B7B7D7C7C80818182848226
:104BD00083888988898784817D7E7F838787838393
:104BE000817D7D7D7B767672717479787A7D7E8227
:104BF0008385868487888482818082858A8B8A8C5B
:104C000085807D7A76767474757378797F807E7C02
:104C10007B7B7E818484828382828789858484826F
:104C200083838083838A87847F7A797174727273B5
:104C300077757A83888A86817E817F81858D928946
:104C4000878583827C7D7D797E7C797A78746E6DB0
:104C5000717B7C7C7F838D8E918E898A8A8C8A84FD
:104C60007F7B74747D8282817B7A7979726C6F68C4
:104C70006A7179838A8C979F9A928984898C8279C8
:104C80006F6E71767C828989878D92918A77686050
:104C90005B5F6166717F8E979B9B988D898B8B8202
:104CA0007C7574767B81848887918F868481776E0A
:104CB000696664696C72808F9699979397948F89CF
:104CC000857C79746F737A7670727679797B7A8263
:104CD00084817E8178747D878D8D908C8B90928A73
:104CE000817573716F737E7E7F868B8E8B81726B05
:104CF0006763646A687184959D9F9B989995938A70
:104D0000837E7E7C7A787A7B7E817E7E79706B73FF
:104D1000757373756E6D78818485878E999C9D9C63
:104D2000968E8D8B867B736D6B67676B6E6E717AFB
:104D30007D7F828379747784888C88888C8B8C883B
:104D40008680807E8185848183858B908F82726747
:104D50005C5B5E656A6F778898A09D968E8B878670
:104D600083838484837C7A7B838482817C736C7369
:104D70007B7D7E78686268757D848A90979EA6A701
:104D80009E8E857C77777373747776736D6A6F6F99
:104D90006E6F777C7E8089939594918B888A8986C3
:104DA00083848583827E7C787678808686837A7316
:104DB0006B655F5F63656D7C8B949D9E9E9FA19AE2
:104DC00090817D807F7E7A7D7B818689847A6E600A
:104DD00060656A6C6D696B7680848D94979AA3A7E1
:104DE000A29C9794897E746D6C717A7C76746F6FD7
:104DF00070736E696969707C8A8C8E8F8F909696BD
:104E0000918C8A8B8A8B87847F7B797B7C7D7D7577
:104E10006D665D606D706C737578828E97979794F0
:104E200092908D8D897F7C7D7F87939A9586766F12
:104E300067666561615E60697A858A8C8D8E97A3ED
:104E4000A6A1978E898782807C747072797E807E1D
:104E500079716F6A676E73767A82818690938E8D90
:104E6000918B87888D8E877E7B7A7F8387867F7CF8
:104E7000766C65635D5E68717D8888888D948E8CA4
:104E80008E8A898986838684848584878A89847FBB
:104E90007C776D665C5C5F5D5F6E7C848F9AA2A39D
:104EA000A6A19A938C857F7C797C7670747C7F7FB9
:104EB0007B7975716C6A717374777C7D848B8F9349
:104EC0009394928D8B8B8A847D7D7D828787868467
:104ED0007B6E686363626772787E838484868C8F5E
:104EE0008A898A8A858584868484888A8C8886844F
:104EF000837D766C635C5C61656A737E868F959E4C
:104F00009FA09D9890887F787A7A7A78797A797C50
:104F1000827C736A68676873797B7D878E8F8C8DDE
:104F20008E90929395968B82817B78787C7D807F22
:104F30007D766C686360616A737A838E9294918ADD
:104F40008A90938E8B8B8A858989878883838380D7
:104F50007F7C73675D5959585E696D78818F9B9E20
:104F6000A2A5A29D9D998F85807B75757A7A7F7D9C
:104F70007A7B766C625C5E656B71757C8486888BEF
:104F8000898F969CA39F99948A82827F7B77797F71
:104F90008080796C6461636A6A6D73757C878A8AC4
:104FA00089878B8E908F8B8D8D8E918F8B8985814C
:104FB0008381796E6969625E6064676D777F8285DF
:104FC0008A929A9F9F9B95918F86807D7876777A3B
:104FD0008087877F78726C6867686A6F73797C8076
:104FE000878B93989A999A998F8C8D867E7F7D78FE
:104FF00078797876706E6F6E7071706F767D7C7C6C
:105000007E808690919398938F9095908A87827CEA
:105010007F837E7D7367615E5F615E646C747F8792
:105020008D8F969FA3A0A09C948F88827E7B79759C
:1050300076797978766D696A6667696C7174797F5B
:105040007F838E9AA7A6A39E9897978B8583777266
:10505000717476756F69696A696B6D6C747A7B7F40
:105060008281888D9297979394989B97918E868052
:105070007F7B76746F6C645F5E5F62666B727B7F52
:105080008487929D9F9FA09F9B938F8781817D782E
:105090007B7D7977716C6A676060686E71757C8101
:1050A00082838A91979DA19F9D9D96908A837B760E
:1050B0006E6A6D71706D6D6F70706C6A6E74797AF6
:1050C0007C838A8C939A9C9B9D969395938A8381EB
:1050D0007D7A76746D67615F5F6162646D798287E6
:1050E00087878D939A9B9A9C9F9D9A938A847F7BB6
:1050F0007774747068666868676B65666D74797BD1
:105100007B7F89939EA4A4A3A2A19C928C88857C7A
:105110007573716D68686564666A6C7073767B80A0
:10512000808387898D8C8E9295989F9C9694908C85
:10513000827C79736E676363636567686A717A807E
:105140008182878F94989C9D9691908C8A84817E91
:105150007F807E79716C666566676A70727880841C
:105160008281838B9395979592919393908C88816C
:105170007974716B696362686E6F71797E82818206
:105180008283858C908D8C8C8A8D9092938E8A8967
:1051900089867F766C6259595E60666F787C848AF6
:1051A00089898D959796949491908E8C8B8B87831B
:1051B0008182817871665C585B5F676F737A8084E7
:1051C000898B8B8E94969A9A9695928E92918882DC
:1051D000807D76726D655B5A6065696E777C8488C8
:1051E000888685888D8E8F8E8A8D91939696918BE9
:1051F0008686847B73675D5A595C60666F797F82AF
:1052000085888B8D929598938C8C8E8D8C8F8D8BC1
:105210008889847D736A5F59595E6569727A818273
:10522000828384868991969A999492909396908598
:10523000817E7C77716D68645C5D626C7278808958
:105240008C89898686888C8B88868991979D9D9686
:105250008A8688867C6D615A59595C60666F797F51
:1052600082898B8D8D939899938B888A9193929054
:10527000928F8C877D72675E5957575A5F6A737D2C
:105280007F7D80858D92979799988F8F939797952B
:105290008E8786837D746B68645C5B5F676B7379F4
:1052A0007D817E808185898C8C8C8A8C93999E9E51
:1052B0009A918E8F8C8172655D5D5E5E5F666E78A1
:1052C0007C7F817E81858C90959087878A9194954B
:1052D000939594948F867A6D67635E595B606A7369
:1052E0007B7B777B818C8F90918D8A8C9092969628
:1052F00093908E8B877E76706D6D696867686B6E34
:1053000073797B787A7C8185898D8D89868A91995C
:105310009B9F9B95948E84776B635D585C616A71EB
:10532000777C7A77777C7E83878B8985898F959741
:10533000959599989995897F756E6A67636062699A
:105340006F72757174787E8488888888858C8F9355
:1053500095989B98928E88807A75756F696B747A30
:105360007C7A78757172727275797C7E7D7F8287A6
:10537000919A9EA19A9A958C81766E69686D767CD9
:10538000838583807D7877777876767B7472747A7C
:10539000818A8F979D9B998F847C76706C6A6F74DD
:1053A0007C858A8D898180848381817F7B747476FA
:1053B000797F838587888684817E7A767772737C0D
:1053C000858B8C88848180808083878987847C77A3
:1053D000787D82868A86828281796E676464656C54
:1053E00079868C8F8D8D8B878486898A89847E7B54
:1053F000838A8E9193918E8C857B6E625A57585B0F
:1054000065717D8384868686868A8B898D8E8C8A5B
:10541000888C908F8F8D92928F89827B746E676457
:10542000636A6E6D6E717274787C82868888867FFE
:105430007C818A93999C9C9C99958C81766E6B6BF0
:1054400073777D827E7A767471707071777A7775F2
:1054500071737D888C90979C9F9D94897C74706EED
:105460006C6F7B848A8D8A85827D7B7F817F7B7553
:105470006F6F7374767A7E838A8E9391867F7D7840
:105480007575777F8687807E818486888A8B8883FE
:105490007E79787E807F84858789837B77726D684B
:1054A0006970788286858585827E7B808786888AFA
:1054B0008784838183898E8E8E94938B81786F68A5
:1054C000615F606570767C8283828283858A8C8549
:1054D0007A777A7A7E82848A94999994918D847A63
:1054E0007473727576767777746E72757D83848146
:1054F0007A797D7D7D7E7E81888D8E908F87848573
:10550000807A797C7C7E81828080817E7C7E8384AF
:105510007F7A7A7B7E7E7A7D818382818181827DA2
:1055200076706F747A81878889878786878D8B8468
:1055300084817E7D7E7F7D7D8082858987837F7C5F
:105540007B736F6F71767871757D7F828288898BAE
:10555000838281858B8688878D8988878581827FF4
:10556000797D7B78737679777373727273777C7FCA
:105570008289898787888B8C87888C8A87828787AE
:10558000827C76747676767B7C7D78777B7E7E7F78
:105590007A74747578787C8489898E908F918E8ED8
:1055A000898382807D7A787778717176787B7C7F49
:1055B00082807E7D7B7A797978797E82838A8E91EA
:1055C0009695908A88817A777876757476797E83D5
:1055D00084827E7F7B777576797E7C787D828587F5
:1055E0008B8C89888587878587827E7D7D7B80837C
:1055F0008789857E7A7B746D6665687174777D8333
:105600008D9598989A928B888583807A777A7E8315
:1056100082838284847F7D766C6964656D6E707828
:105620008089959A9793918B8A8B88827974777CFD
:10563000838A8987888B89827A706860636B6F75CB
:1056400077797D868C8C8A8685898E8E8D86818001
:1056500082868B8683838388877C6D6760686E749F
:1056600077787E869194958A7E7C8383827E767419
:105670007A7F888C888887898B87796C6265717955
:10568000828485898E93928B827C7A787C7E7973F2
:1056900072767A8487898B8A898680786D666C6E4B
:1056A000798384858A9094948E87817F7C7F7E7CA9
:1056B0007A76757C8080817C7C7F7E756E676B736B
:1056C0007983888A8F939698938983838385857E4F
:1056D000757474787B7D82807E7D7B736B625F687E
:1056E0007381898D959B9D9A958F88827A767A7C35
:1056F0007C797B7E858A8A8B89827A716A6560670C
:1057000069717B81878A8E9295918A87868285834B
:105710008385817C7D848789857F7E7A72675D5FE2
:10572000696F7A858A8D92939594897D7B7C7F853C
:10573000837D7C7A7E86888C8E877E7870696363B1
:105740006A737E83878E9496979188817F7D78781F
:10575000777873767E868A8D918F8A80756E676181
:10576000686C737B81878D939898908781807F8107
:1057700082807F7C7B80858687857D776E6A645F8B
:10578000666D7980888D94969797928780838688B6
:1057900083837B797B82848385827D786E655F5A83
:1057A000646C7982868C949B9C9D93877F7C7E7EA3
:1057B0007D7C7B7E83898C8E8E8D8A8473655E5C16
:1057C000636A7273777B889298988F8581808488CA
:1057D00084837F8183898B8C8A89857D7468615EEF
:1057E000656E767A81879097979486807D7B7E839D
:1057F000807D7D7E828889888482817C71685D5FFE
:105800006B757F82878A949CA39F94857A78787B36
:10581000747170747B85878B8A8787807B70625CEC
:10582000686F7876788492A1A59E9188838283811F
:105830007A76777C858A867F7E7F827F6E655C60E4
:10584000696F77797D86949DA29B8E87878D8D82E7
:10585000777B82878582828083807E75685C5861D1
:105860006D747473778B9CA29E968F91928A857BC0
:105870007372787D827E8184898C8A7D6E696A7478
:10588000706C6A70798490959087858B8E897F770C
:105890007A848C8D857E808486817C716F6C727A2F
:1058A00078736C737D8D8F8E8A868B918D837E79D4
:1058B0007F858580838082898B83756B6A6D717427
:1058C0006D6E717D848B8F908D8C8E908E87807A9B
:1058D0007F84857E7F7A7F83837E76727478797EFB
:1058E000737274787884848485898D8C8D85837EA9
:1058F00085898B8687828182807A746F6D76787ACB
:10590000717373787D838483848485878B8787868E
:105910008A888C8B8D868485827C766F6568696FBA
:10592000676C6C747D878B8B908F9595958C897F38
:105930007D7D8685837F7D8484827D786E726F72A3
:1059400071726D6E777F868286878F91918A888843
:105950008A86898882837E7F7D8079777073747868
:10596000777173777E7C8180838284878B8B8D892E
:10597000878B8D8F878A888A847C78776F6461644F
:105980006D6F70717B7E888B8A8E90918D918F8DDB
:1059900087847F8586827E7C817F7E7877706F6D3D
:1059A0007070707071777E8B8B8F888A8F948D85E5
:1059B000878587888883827D7E7B7B76746D6C7318
:1059C0007379737376808182818182848A8A918DD2
:1059D0008B8B8E8D908A8584838582796D6E6968C4
:1059E0006266676971757F848B8C919092908E8AC4
:1059F0008A8B8C8C8A8985867F7F7E7D7876726F94
:105A00006E696C68686D727783898D91908B8D96C5
:105A1000908B89888989837E7D7E82827E7A797364
:105A200072727275737272787C7D7C7E8185868BD2
:105A3000908E8F8D8D8D8E8985858586827C6E6B0F
:105A40006C6B65656B6F74787F838A8C8D8B8A89AC
:105A50008B8B888C898A87868587838081817F78F4
:105A6000746D6965696A6C6F777D85909195928C8C
:105A70008C948F88808182827F7C7A7A8182827CFA
:105A80007B7572737577787571777C817F80848779
:105A90008993958F908C8B8988837E7C8081817F90
:105AA000736C686C66676F72737B82878F908F8B65
:105AB000898C8F8A8C89878D8B8580838080817F7C
:105AC0007971676362666C6E6D717D859095939355
:105AD00094919295918577797C7E7C7C7C818A8A71
