:020000040800F2
:1000000000000120C5020008CB020008CF02000852
:1000100041030008450300088D03000800000000AC
:10002000000000000000000000000000D5030008F0
:10003000D903000800000000DD0300083D1100089E
:10004000F1030008F1030008F1030008F1030008C0
:10005000F1030008F1030008F1030008F1030008B0
:10006000F1030008F1030008F1030008F1030008A0
:10007000F1030008F1030008F1030008F103000890
:10008000F1030008F1030008F1030008000000007C
:10009000000000000000000000000000F103000864
:1000A000F1030008F1030008F1030008F103000860
:1000B000F1030008F1030008F1030008F103000850
:1000C000F1030008F1030008F1030008F103000840
:1000D000F1030008C9100008F10300080000000047
:1000E000F1030008F1030008F1030008000000001C
:1000F000000000000000000000000000F103000804
:1001000000000000F1030008F1030008F1030008FB
:1001100000000000000000000000000000000000DF
:10012000F1030008F1030008F1030008F1030008DF
:10013000F1030008000000000000000000000000C3
:10014000000000000000000000000000F1030008B3
:10015000F1030008F1030008F1030008F1030008AF
:10016000F1030008F1030008000000000000000097
:10017000000000000000000000000000000000007F
:1001800000000000F1030008000000000000000073
:10019000F103000800B583B000F046FE384B394A41
:1001A0001360394A1360394900E02146384B9942BF
:1001B0000BD20A684B6801F10C0488689842F4D9A4
:1001C0001168196004330432F8E72E4B1A68314B7A
:1001D0009A4200D0FEE72C4B1A682F4B9A42F9D175
:1001E000274B2E4A13602E4A13602E4B05E0002049
:1001F000106004329342FAD80B462B4A934204D241
:10020000194651F8082B5B68F4E7244B1B6813B9B7
:10021000234B1B6803B1FEE701F048FB694601A8C8
:1002200000F094FD214C224BE41AA4100025AC42AE
:1002300014DC204C204BE41AA4100025AC4213DC43
:100240000099019801F052FB05461C4C1C4BE41A26
:10025000A410002C0EDC284600F04AFD144B53F885
:10026000253098470135E2E7134B53F8253098477E
:100270000135E3E7013C124B53F824309847E8E797
:10028000BABADECA0000002078000020F40300089B
:100290000C04000878563412325476987C00002002
:1002A000B4C500200C0400081C0400081C0400084D
:1002B0001C0400081C0400081C0400081C0400089E
:1002C0001C04000808B5FFF765FF00BEFEE71EF03E
:1002D000040F0CBFEFF30880EFF309807146414A29
:1002E00010472DE9F04182B004468846124B5E6B00
:1002F0009F6B9D6A1B6B13F0020F03D00E4BDB6AE2
:10030000002B0CDB0D4800F033FDCDF800803B46A0
:1003100032462946204600F093FD00BEFEE74BF62C
:10032000AB6100F007FE0028ECD0034B4FF0004219
:10033000DA6202B0BDE8F08100ED00E0082A0008B2
:1003400000BEFEE71EF0040F0CBFEFF30880EFF3D2
:1003500009807146244A10472DE9F04182B00446D5
:100360008846084B5E6B9F6B9D6A074800F000FD56
:10037000CDF800803B4632462946204600F060FD1D
:1003800000BEFEE700ED00E0182A00081EF0040F92
:100390000CBFEFF30880EFF309807146134A104752
:1003A0002DE9F04182B004468846084B5E6B9F6B96
:1003B0009D6A074800F0DCFCCDF800803B463246E1
:1003C0002946204600F03CFD00BEFEE700ED00E0BF
:1003D000242A000800BEFEE700BEFEE700BEFEE7DE
:1003E00070470000E302000859030008A103000859
:0403F00000BEFEE766
:1003F400382B0008000000207C000020382B000867
:1004040000000010000000107C000020B8C500208F
:080414000000001000000010C0
:1004200010B50446074B1868074BA3FB0030800942
:1004300000F090F8002221464FF0FF3000F044F821
:10044000002010BD0C000020D34D621008B50B4BEE
:100450001A6842F400721A601A6842F480621A60E4
:100460001A6842F480721A60032000F00FF80F201F
:10047000FFF7D6FF01F0DCFA002008BD003C024087
:10048000014B1868704700BF8C01002010B504466E
:10049000C31E042B0FD80A4AD36823F4E0631B045D
:1004A0001B0C240204F4E064234343F0BF6343F4D1
:1004B0000033D36010BDA421024800F04FFCEAE7EE
:1004C00000ED00E03828000870B505460C461646D9
:1004D0000F2A25D80F2C28D81B4BDB68C3F3022327
:1004E000C3F10702042A28BF0422191D062921D9B5
:1004F000033B4FF0FF3101FA02F224EA02049C4070
:1005000001FA03F326EA03063443002D14DB240129
:10051000E4B205F1604505F5614585F8004370BD1D
:10052000BC210A4800F01AFCD4E7BD21074800F0BE
:1005300015FCD1E70023DCE705F00F052401E4B248
:10054000034B5C55EBE700BF00ED00E038280008E6
:1005500014ED00E00138B0F1807F0AD2064B5860FC
:10056000064AF02182F823100020986007221A60C2
:1005700070470120704700BF10E000E000ED00E090
:1005800010B50446042800D038B9042C0BD0094A11
:10059000136823F00403136010BD40F2B311064842
:1005A00000F0DCFBF1E7034A136843F00403136037
:1005B000F2E700BF10E000E03828000830B583B053
:1005C000044603680F2B29D8236813F0010F3DD090
:1005D0006368012B01D9052B25D1A34B9B6803F040
:1005E0000C03042B29D0A04B9B6803F00C03082BB1
:1005F0001ED022799D4B1A706368002B50D0FFF7F4
:100600003FFF0546984B1B6813F4003F1ED1FFF7D0
:1006100037FF401B6428F5D90320E3E1F521944816
:1006200000F09CFBD0E7FA21914800F097FBD4E75B
:100630008D4B5B6813F4800FDBD08B4B1B6813F47E
:10064000003F03D06368002B00F0C981236813F0DA
:10065000020F5DD0E368012B31D823691F2B34D8FA
:10066000814B9B6813F00C0F3AD07F4B9B6803F0D3
:100670000C03082B2FD0E368002B74D07D4B012294
:100680001A60FFF7FDFE0546774B1B6813F0020F5B
:100690005AD1FFF7F5FE401B0228F5D90320A1E14E
:1006A000FFF7EEFE0546704B1B6813F4003FCDD0FC
:1006B000FFF7E6FE401B6428F5D9032092E14FF4D2
:1006C00096716B4800F04AFBC7E740F22D1168486D
:1006D00000F044FBC4E7644B5B6813F4800FCAD19D
:1006E000614B1B6813F0020F04D0E368012B01D0AB
:1006F000012077E15C48036823F0F8032169F822C0
:1007000092FAA2F2B2FA82F201FA02F21343036001
:10071000236813F0080F50D06369012B35D8636943
:10072000002B38D0544B01221A60FFF7A9FE054672
:100730004D4B5B6F13F0020F3FD1FFF7A1FE401B43
:100740000228F5D903204DE14748036823F0F80358
:100750002169F82292FAA2F2B2FA82F201FA02F2C6
:1007600013430360D4E7434B00221A60FFF788FE6F
:1007700005463D4B1B6813F0020FC9D0FFF780FE02
:10078000401B0228F5D903202CE140F26D113848B6
:1007900000F0E4FAC3E7384B00221A60FFF770FE5E
:1007A0000546314B5B6F13F0020F06D0FFF768FE72
:1007B000401B0228F5D9032014E1236813F0040F2D
:1007C00060D0A368012B01D9052B1FD10023019311
:1007D000254B1A6C42F080521A641B6C03F0805354
:1007E0000193019B254A136843F480731360FFF75C
:1007F00047FE0546214B1B6813F4807F0CD1FFF7A1
:100800003FFE401B0228F5D90320EBE040F2971190
:10081000174800F0A3FAD9E7227A194B1A70A36897
:1008200083B1FFF72DFE05460F4B1B6F13F0020F30
:1008300028D1FFF725FE401B41F288339842F3D9B7
:100840000320CFE0FFF71CFE0546074B1B6F13F09C
:10085000020F17D0FFF714FE401B41F28833984275
:10086000F3D90320BEE000BF003802400238024046
:100870007C28000800004742800E4742007000407C
:1008800070380240A369022B39D8A369002B00F00D
:10089000A880564A926802F00C02082A00F0A48050
:1008A000022B40F08880E36913B1B3F5800F2CD19F
:1008B000236A3F2B2FD8636A323BB3F5BF7F30D812
:1008C000A36A022B05D0042B03D0062B01D0082BE2
:1008D0002DD1E36A043B0B2B2FD8454B00221A6025
:1008E000FFF7CEFD0546414B1B6813F0007F2AD071
:1008F000FFF7C6FD401B0228F5D9032072E04FF434
:10090000E6713C4800F02AFABFE740F2D5113948B9
:1009100000F024FACCE74FF4EB71364800F01EFAF1
:10092000C9E740F2D711334800F018FAC8E74FF48E
:10093000EC71304800F012FACBE740F2D9112D48A3
:1009400000F00CFAC9E7E369226A1343616A47F6CB
:10095000C07292FAA2F2B2FA82F201FA02F21343E0
:10096000A26A5208013A4FF4403191FAA1F1B1FA6A
:1009700081F18A401343E16A4FF0706292FAA2F269
:10098000B2FA82F201FA02F21343184A5360184B8A
:1009900001221A60FFF774FD0446144B1B6813F024
:1009A000007F06D1FFF76CFD001B0228F5D903205C
:1009B00018E0002016E00E4B00221A60FFF760FDE1
:1009C00004460A4B1B6813F0007F06D0FFF758FD62
:1009D000001B0228F5D9032004E0002002E00120DA
:1009E00000E0002003B030BD0120FBE700380240EA
:1009F000600047427C280008214B9B6803F00C03F1
:100A0000042B3AD0082B01D01E4870471C4B586865
:100A100000F03F005B6813F4800F1ED01A4AB2FB4F
:100A2000F0F2174B586847F6C073184093FAA3F3D7
:100A3000B3FA83F3D84000FB02F0114B5B6803F478
:100A400040334FF4403292FAA2F2B2FA82F2D3402B
:100A500001335B00B0FBF3F070470A4AB2FBF0F2DF
:100A6000074B586847F6C073184093FAA3F3B3FADC
:100A700083F3D84000FB02F0DFE70348704700BF74
:100A8000003802400024F40040787D0170B504462F
:100A90000D460368013B0E2B11D8072D15D88C4B42
:100AA0001B6803F00F03AB4215D2EBB2884A1370F8
:100AB000136803F00F03AB420DD0012070BD40F26C
:100AC0003721844800F04AF9E7E74FF40E71814876
:100AD00000F044F9E3E7236813F0020F18D0A3688D
:100AE0007BB1802B0DD0902B0BD0A02B09D0B02B3D
:100AF00007D0C02B05D0D02B03D0E02B01D0F02B9A
:100B000037D1754A936823F0F003A1680B439360D3
:100B1000236813F0010F73D06368032B2FD8636829
:100B2000012B32D09A1E012A36D96B4A126812F074
:100B3000020F00F0CA8068498A6822F0030213435A
:100B40008B60FFF79DFC06466368012B2BD0022BC0
:100B500038D0032B45D0604B9B6813F00C0F4FD05F
:100B6000FFF78EFC801B41F288339842F3D90320B3
:100B7000A4E740F24F21574800F0F0F8C1E740F2F7
:100B80005621544800F0EAF8C9E7534A126812F4B3
:100B9000003FD0D1012091E74F4A126812F0007F48
:100BA000C9D101208AE74C4B9B6803F00C03042B4E
:100BB00026D0FFF765FC801B41F288339842F2D9BA
:100BC00003207BE7444B9B6803F00C03082B17D0F2
:100BD000FFF756FC801B41F288339842F2D903207C
:100BE0006CE73D4B9B6803F00C030C2B08D0FFF720
:100BF00047FC801B41F288339842F2D903205DE71D
:100C0000334B1B6803F00F03AB4209D9EAB2304BF8
:100C10001A701B6803F00F03AB4201D001204DE7AF
:100C2000236813F0040F14D0E3685BB1B3F5805F61
:100C300008D0B3F5A05F05D0B3F5C05F02D0B3F51F
:100C4000E05F36D1244A936823F4E053E1680B4314
:100C50009360236813F0080F15D023695BB1B3F5D7
:100C6000805F08D0B3F5A05F05D0B3F5C05F02D0B8
:100C7000B3F5E05F23D1184A936823F460432169F8
:100C800043EAC1039360FFF7B7FE134B9B6803F081
:100C9000F003F02292FAA2F2B2FA82F2D3400F4AA3
:100CA000D35CD8400E4B18600F20FFF7B9FB002033
:100CB00004E74FF42D71074800F050F8C2E740F206
:100CC000BB21044800F04AF8D5E70120F6E600BF52
:100CD000003C02407C280008003802406C280008D4
:100CE0000C000020014B1868704700BF0C0000206A
:100CF000FEE7000008B5034800F052F80120FFF7B6
:100D0000F7FF00BFAC28000808B503460C4A12687C
:100D10005AB10B4A1068033323F003030344094A12
:100D2000934206D8064A136008BD054A0649116079
:100D3000EFE701F0FDF80C2303604FF0FF30F3E71D
:100D40008000002000FC0020B8C5002001230360C3
:100D5000014B0B60704700BF0400002008B50A4635
:100D60000146024800F004F8FFF7C4FFC02800085D
:100D70000FB400B583B004AB53F8042B019380216A
:100D8000064801F017F9002803DD0146034800F08A
:100D900047F803B05DF804EB04B07047880000200A
:100DA00010B5044601F0D2F80146204600F038F8AC
:100DB0000121024800F034F810BD00BFE82A000805
:100DC0002DE9F04385B004460F4643560BB10E465D
:100DD0001EE0042528462146ABBE0446384605B031
:100DE000BDE8F08314F9011B04AA1A4402F8101C90
:100DF0000133AB42F6D304AA1344002203F8102CAB
:100E00004FF00408E94640464946ABBE8046761B93
:100E1000002EE3D03546102E28BF10250023E8E72A
:100E200008B5FFF7CDFF08BD08B500F093F8024AFA
:100E3000024B9A6008BD00BF0000000800ED00E012
:100E4000F8B504460D4617461E462748FFF790FFA3
:100E500021682648FFF78CFF61682548FFF788FF67
:100E6000A1682448FFF784FFE1682348FFF780FF6B
:100E700021692248FFF77CFF61692148FFF778FF6D
:100E8000A1692048FFF774FFE1691F48FFF770FF71
:100E90001E48FFF76DFF29461D48FFF769FF1D4CEF
:100EA000E16A1D48FFF764FF216B1C48FFF760FFF4
:100EB000E16B1B48FFF75CFF15F0800F0AD115F4BA
:100EC000004F0CD11748FFF753FF06991648FFF75C
:100ED0004FFFF8BD39461548FFF74AFFEFE73146A7
:100EE0001348FFF745FFEDE7EC280008FC28000851
:100EF0000C2900081C2900082C2900083C2900089E
:100F00004C2900085C2900086C2900087C2900088D
:100F10008829000800ED00E098290008A8290008A9
:100F2000B8290008E8290008F0290008C8290008A5
:100F3000D829000883691A888A4201D000207047A6
:100F40000268033A012A03D8023383610120704703
:100F5000002070470C4B1A6842F001021A60002111
:100F600099601A6822F0847222F480321A60074A6B
:100F70005A601A6822F480221A60D960044B4FF03C
:100F800000629A60704700BF0038024010300024B1
:100F900000ED00E0224B9B6803F00C03042B14D0FF
:100FA000082B16D01BB11F4B1F4A1A6002E01D4BC5
:100FB0001D4A1A601A4B9B68C3F303131B4AD15C8A
:100FC000184A1368CB4013607047164B184A1A60D2
:100FD000F0E7134B5A685B6803F03F0312F4800F8D
:100FE00013D0134AB2FBF3F20D4B5B68C3F38813C3
:100FF00003FB02F30A4A5268C2F301420132520073
:10100000B3FBF2F3074A1360D4E7074AB2FBF3F2EB
:10101000034B5B68C3F3881303FB02F3EAE700BFEB
:10102000003802400C0000200024F400342A00089C
:1010300040787D01054B80229A60DA6842F0080210
:10104000DA60DA6842F00402DA60704700100140AA
:10105000064B5860054B1B6813F0400FFAD0034A4B
:10106000136823F040031360704700BF0010014075
:1010700038B50546002403E0FFF7EAFF0134E4B287
:10108000285D0028F8D138BD00230A4A126812F002
:10109000200F04D101338342F7D1802000E00020EB
:1010A00010B9044B5868C0B2024A136823F02003F9
:1010B0001360704700100140024AD36843F40053A4
:1010C000D36070470010014008B5024B1B6803B1A4
:1010D000984708BD08010020024A136843F0040342
:1010E0001360704710E000E010B50C4B196000244D
:1010F0000B4B1C7000F054FD0A4900F05DFE00F03F
:10110000F7FE094B9C605860DA6842F00202DA6030
:101110001A6842F001021A6010BD00BF9801002059
:10112000940100206F12833810E000E0024A136837
:1011300023F001031360704710E000E008B5064B90
:101140001B6843B19847054B1B7823B9044A1368C1
:1011500023F00103136008BD9801002094010020D2
:1011600010E000E0154B1A6842F400221A601A6879
:1011700042F080021A609A6822F001029A609A682E
:1011800022F002029A600D4B9B6813F0040FFAD113
:101190000A4B9B6813F0080FF5D1084B9A689A60C8
:1011A0009A689A609A689A601A6842F001021A6016
:1011B000024B1B6813F0020FFAD070470038024050
:1011C0001F2817D9A0F12003DBB21F2B1AD9A0F1D9
:1011D0004003DBB21F2B1ED9A0F16003DBB21F2B33
:1011E00007D811494B6C6038012202FA00F018430D
:1011F000486470470C490B6B012202FA00F0184357
:1012000008637047084A536BA0F120010120884011
:10121000184350637047044A136CA0F14001012049
:1012200088401843106470470038024010B4012809
:1012300012D018B102281DD010BC7047144B18688A
:10124000490003248C4020EA04001860186802FA60
:1012500001F101431960EFE70E4B186849000324C0
:101260008C4020EA04001860186802FA01F101437A
:101270001960E1E7084B1868490003248C4020EA14
:1012800004001860186802FA01F101431960D3E7FD
:1012900000000240000402400008024002BB012896
:1012A0000CD010B1022812D070471E4843680122AA
:1012B00002FA01F123EA0101416070471A484368CC
:1012C000012202FA01F123EA010141607047174847
:1012D0004368012202FA01F123EA010141607047EB
:1012E000012A00D0704701280BD010B1022810D07D
:1012F00070470C484368012202FA01F1194341602A
:10130000704709484368012202FA01F1194341601C
:10131000704706484368012202FA01F1194341600F
:10132000E0E700BF00000240000402400008024065
:1013300010B4012812D018B102281DD010BC70477B
:10134000144B9868490003248C4020EA04009860FC
:10135000986802FA01F101439960EFE70E4B986833
:10136000490003248C4020EA04009860986802FA3F
:1013700001F101439960E1E7084B986849000324B3
:101380008C4020EA04009860986802FA01F1014359
:101390009960D3E7000002400004024000080240C8
:1013A00002BB01280CD010B1022812D070471E4891
:1013B0004369012202FA01F123EA01014161704708
:1013C0001A484369012202FA01F123EA010141614D
:1013D000704717484369012202FA01F123EA01012B
:1013E00041617047012A00D0704701280BD010B12D
:1013F000022810D070470C484369012202FA01F11B
:1014000019434161704709484369012202FA01F119
:1014100019434161704706484369012202FA01F10C
:1014200019434161E0E700BF0000024000040240B0
:101430000008024030B4072930D8012812D018B172
:1014400002281DD030BC70472E4C236A89000F2023
:10145000884023EA00032362236A02FA01F1194358
:101460002162EFE7284C236A89000F20884023EA95
:1014700000032362236A02FA01F119432162E1E7C2
:10148000224C236A8D000F21A94023EA0103236225
:10149000236A02FA05F119432162D3E7012821D01A
:1014A00080B10228CED1194C636A083989000F2017
:1014B000884023EA00036362636A02FA01F1194378
:1014C0006162BFE70F4C636AA1F1080080000F2141
:1014D000814023EA01036362636A02FA00F0184361
:1014E0006062AFE7084C606AA1F108039B000F211E
:1014F000994020EA01016162616A02FA03F30B4339
:1015000063629FE7000002400004024000080240BE
:10151000134BDB6813F4803FFAD1114B1B69002B8E
:1015200017DB0F4B1A6942F004021A611A6942F480
:1015300080321A610A4BDB6813F4803FFAD1084B02
:10154000DA6842F00102DA601A6922F004021A61D4
:101550007047034B034A5A6002F188325A60E0E751
:10156000003C02402301674530B41C4BDB6813F498
:10157000803FFAD1194B1B69002B0EDB174B1C69FE
:1015800024F440741C611C6944F480741C611C695F
:1015900044F001041C61002416E0104B104C5C6008
:1015A00004F188345C60E9E731F8143020F8023B3C
:1015B0000A4BDB6813F4803FFAD1084DEB6843F027
:1015C0000103EB600134A4B29442EDD3034A1369E2
:1015D00023F00103136130BC704700BF003C0240A0
:1015E0002301674570B59AB005460E466422002176
:1015F00001A800F0A3FC0020044608E02846FFF7FD
:1016000043FD631C1AAA144404F8640CDCB210F005
:10161000800FF3D09DF804304F2B04D04E2B08D010
:1016200000201AB070BD9DF805204B2AF6D101208C
:10163000F7E79DF80530442B01D00020F1E79DF835
:1016400007304F2B01D00020EBE79DF808304B2BE3
:1016500015D00020E5E7F254013303F110021AA976
:101660000A4412F8642C432AF5D103F111011AA897
:10167000014411F8641C4C29EDD10120D1E700236D
:10168000EBE7000008B5002006E00A48FFF7F0FC91
:1016900000210948FFF7A6FF0028F6D0002006E049
:1016A0000648FFF7E5FC00210348FFF79BFF0028F1
:1016B000F6D008BDEC2A0008A0860100F42A000834
:1016C000002050B908B50548FFF7D2FC00210448B6
:1016D000FFF788FF0028F6D008BD7047842A00086D
:1016E000A0860100002050B908B50548FFF7C0FCEE
:1016F00000210448FFF776FF0028F6D008BD7047A8
:10170000B02A0008A086010010B50446FFF7EAFFE2
:101710000748FFF7ADFC00214CF25030FFF762FFA5
:101720000448FFF7A5FC21460348FFF75BFF10BD07
:10173000442A0008542A0008A08601000246A0F1AD
:101740003003D8B2092809D9A2F14103DBB2052B35
:1017500003D8A2F13700C0B27047002070470000E4
:101760002DE9F84F06464078FFF7E8FF8046B0784D
:10177000FFF7E4FF40EA08185FFA88F8F078FFF70F
:10178000DDFF07463079FFF7D9FF81467079FFF713
:10179000D5FF0546B079FFF7D1FF3F0347F000675B
:1017A00047EA092747EA05170743002526E04FEADD
:1017B000850B0BF10903F05CFFF7C0FF82460BF1CC
:1017C0000A03F05CFFF7BAFF04460BF10B03F05C71
:1017D000FFF7B4FF81460BF10C0B16F80B00FFF777
:1017E000ADFF230243EA0A331BB243EA09131BB2DB
:1017F0001843074B23F815000135EDB24FEA5802A4
:10180000AA42D4D802493846FFF7AEFEBDE8F88FA9
:101810009C01002070B594B000240194204B1A6CF8
:1018200042F080521A641B6C03F080530193019BB9
:1018300002941C4B1A6842F440421A601B6803F47D
:1018400040430293029B0123089309934FF48003C2
:101850000F93192310934FF4A87311930426129633
:101860000723139302250E9508A8FEF7A7FE0F2362
:101870000393049505944FF48053069307942946E7
:1018800003A8FFF703F9FFF72DFA074BA3FB00307E
:101890008009FEF75FFE3046FEF772FE14B070BDA1
:1018A0000038024000700040D34D621008B5FEF7CA
:1018B000CDFDFFF7AFFFFFF76DFB08BD08B5064B89
:1018C00001221A70054B064A1A60064B1B68064A2D
:1018D0001360984708BD00BF1801002008ED00E024
:1018E00000400008044000080C01002038B5FFF754
:1018F00039FC0020FFF764FC6420FFF761FC022242
:1019000009210020FFF792FC02220A210020FFF7A4
:101910008DFC072209210020FFF78CFD07220A21F8
:101920000020FFF787FD002410E00122214600205F
:10193000FFF77CFC002221461046FFF7AFFC012296
:1019400021460020FFF7F4FC0134E4B2022CECD96C
:10195000012211460020FFF723FD01220221002071
:10196000FFF71EFDFFF766FBFFF7A6FBFFF78AFEFA
:10197000FFF7A6FEFFF7B6FEFFF7AEFB234943F6DF
:101980009820FFF7B1FB17E0214C23685A1C226016
:10199000204A1278204DE95C204B9954FFF7C6FB92
:1019A0002368EB5C0A2B14D01A4A137801331370A6
:1019B0001A4B1B7A312B1DD0194B1B7823BB194BAB
:1019C0001B78002BE0D11448FFF79EFE154B1870D2
:1019D000F2E7154B1B78012B06D01048FFF7C0FE2D
:1019E0000C4B00221A70E3E7FFF792FD0E4B00222A
:1019F0001A70F2E705490D48FFF776FB0122002136
:101A00000846FFF7CDFCD7E7002038BDBD18000819
:101A10001401002080010020640200201C0100202D
:101A200018010020100100201000002040420F008B
:101A30007047000080F0004002E000BF81F00041EC
:101A400042001FBF5FEA410392EA030F7FEA226C64
:101A50007FEA236C6AD04FEA1262D2EB1363C1BFF4
:101A6000D218414048404140B8BF5B42192B88BF63
:101A7000704710F0004F40F4000020F07F4018BF86
:101A8000404211F0004F41F4000121F07F4118BFA6
:101A9000494292EA030F3FD0A2F1010241FA03FC4E
:101AA00010EB0C00C3F1200301FA03F100F0004336
:101AB00002D5494260EB4000B0F5000F13D3B0F1FE
:101AC000807F06D340084FEA310102F10102FE2A6D
:101AD00051D2B1F1004F40EBC25008BF20F00100DD
:101AE00040EA03007047490040EB000010F4000F8B
:101AF000A2F10102EDD1B0FA80FCACF1080CB2EB1E
:101B00000C0200FA0CF0AABF00EBC250524218437C
:101B1000BCBFD0401843704792F0000F81F4000121
:101B200006BF80F400000132013BB5E74FEA4103F4
:101B30007FEA226C18BF7FEA236C21D092EA030F60
:101B400004D092F0000F08BF0846704790EA010FDA
:101B50001CBF0020704712F07F4F04D1400028BF07
:101B600040F00040704712F100723CBF00F50000E9
:101B7000704700F0004343F0FE4040F4000070471F
:101B80007FEA226216BF08467FEA236301464202CB
:101B900006BF5FEA412390EA010F40F480007047DE
:101BA0004FF0000304E000BF10F0004348BF404284
:101BB0005FEA000C08BF704743F0964301464FF0C0
:101BC00000001CE050EA010208BF70474FF000031C
:101BD0000AE000BF50EA010208BF704711F000435D
:101BE00002D5404261EB41015FEA010C02BF84462D
:101BF0000146002043F0B64308BFA3F18053A3F58C
:101C00000003BCFA8CF2083AA3EBC25310DB01FAD2
:101C100002FC634400FA02FCC2F12002BCF1004F56
:101C200020FA02F243EB020008BF20F001007047E7
:101C300002F1200201FA02FCC2F1200250EA4C003B
:101C400021FA02F243EB020008BF20EADC70704781
:101C50004FF0FF0C1CEAD0521EBF1CEAD15392EA8F
:101C60000C0F93EA0C0F6FD01A4480EA010C40026B
:101C700018BF5FEA41211ED04FF0006343EA5010C5
:101C800043EA5111A0FB01310CF00040B1F5000F07
:101C90003EBF490041EAD3715B0040EA010062F1B6
:101CA0007F02FD2A1DD8B3F1004F40EBC25008BFA0
:101CB00020F00100704790F0000F0CF0004C08BFBE
:101CC00049024CEA502040EA51207F3AC2BFD2F18B
:101CD000FF0340EAC250704740F400004FF0000399
:101CE000013A5DDC12F1190FDCBF00F000407047D3
:101CF000C2F10002410021FA02F1C2F1200200FA11
:101D000002FC5FEA310040F1000053EA4C0308BFD7
:101D100020EADC70704792F0000F00F0004C02BF28
:101D2000400010F4000F013AF9D040EA0C0093F0A3
:101D3000000F01F0004C02BF490011F4000F013BFD
:101D4000F9D041EA0C018FE70CEAD15392EA0C0F6B
:101D500018BF93EA0C0F0AD030F0004C18BF31F0D6
:101D6000004CD8D180EA010000F00040704790F0AC
:101D7000000F17BF90F0004F084691F0000F91F050
:101D8000004F14D092EA0C0F01D142020FD193EA16
:101D90000C0F03D14B0218BF084608D180EA01009E
:101DA00000F0004040F0FE4040F40000704740F07A
:101DB000FE4040F4400070474FF0FF0C1CEAD05248
:101DC0001EBF1CEAD15392EA0C0F93EA0C0F69D0A4
:101DD000A2EB030280EA010C49024FEA402037D00F
:101DE0004FF0805343EA111143EA10130CF0004006
:101DF0008B4238BF5B0042F17D024FF4000C8B42F6
:101E000024BF5B1A40EA0C00B3EB510F24BFA3EBD5
:101E1000510340EA5C00B3EB910F24BFA3EB9103A5
:101E200040EA9C00B3EBD10F24BFA3EBD10340EAFF
:101E3000DC001B0118BF5FEA1C1CE0D1FD2A3FF645
:101E400050AF8B4240EBC25008BF20F001007047FA
:101E50000CF0004C4CEA50207F32C2BFD2F1FF039D
:101E600040EAC250704740F400004FF00003013ACE
:101E700037E792F0000F00F0004C02BF400010F472
:101E8000000F013AF9D040EA0C0093F0000F01F086
:101E9000004C02BF490011F4000F013BF9D041EAA8
:101EA0000C0195E70CEAD15392EA0C0F08D14202DB
:101EB0007FF47DAF93EA0C0F7FF470AF084676E7AE
:101EC00093EA0C0F04D14B023FF44CAF08466EE787
:101ED00030F0004C18BF31F0004CCAD130F0004255
:101EE0007FF45CAF31F000437FF43CAF5FE700BFAD
:101EF00042000ED2B2F1FE4F0BD34FF09E03B3EB74
:101F0000126209D44FEA002343F0004323FA02F09F
:101F100070474FF00000704712F1610F01D142028B
:101F200002D14FF0FF3070474FF00000704700BF04
:101F3000014B1868704700BF14000020024403469C
:101F4000934200D1704703F8011BF9E7034613F8E9
:101F5000012B002AFBD1181A0138704730B5141E26
:101F600005469BB0184605DA8B232B604FF0FF30F7
:101F70001BB030BD4FF40273ADF80C3014BF04F148
:101F8000FF332346029305934FF6FF7300910491AC
:101F9000ADF80E3002461E9B6946284600F072F8E6
:101FA000431CBCBF8B232B60002CE1D0009B002284
:101FB0001A70DDE707B5009313460A460146034849
:101FC0000068FFF7CBFF03B05DF804FB14000020AE
:101FD0002DE9F0478E689E4282460C46904699460F
:101FE00037D88A8912F4906F31D0256809696F1A41
:101FF0006569022305EB450595FBF3F509F101033E
:102000003B449D4238BF1D46530530D5294600F05C
:1020100079FB064650B90C23CAF80030A38943F077
:102020004003A3814FF0FF30BDE8F0873A462169B5
:1020300000F0F6FAA38923F4906343F08003A381B0
:10204000266165613E44ED1B2660A5604E464E4507
:1020500000D94E4632464146206800F0ECFAA368AB
:102060009B1BA36023681E4426600020DCE72A46F1
:1020700000F0A2FB06460028E2D12169504600F09C
:10208000F3FAC8E72DE9F04F9DB0804603938B89A2
:102090001D060C4616460FD50B696BB9402100F0A2
:1020A00031FB2060206128B90C23C8F800304FF0C4
:1020B000FF30C7E0402363610023099320238DF89C
:1020C000293030238DF82A304FF0010B37463D463A
:1020D00015F8013B0BB1252B3ED1B7EB060A0BD00F
:1020E0005346324621464046FFF772FF013000F06A
:1020F000A480099B534409933B78002B00F09D80FA
:1021000000234FF0FF32CDE90523049307938DF8A8
:1021100053301A932F46052217F8011B4F4800F041
:102120002FFA049BD0B9D90644BF20228DF8532042
:102130001A0744BF2B228DF853202A782A2A15D05B
:10214000079A2F4600200A25394611F8013B303BFB
:10215000092B4DD9B8B10FE02F46B8E73F4A801A96
:102160000BFA00F0184304903D46D3E7039A111D83
:1021700012680391002A01DB079204E0524243F007
:102180000203079204933B782E2B0CD17B782A2BE9
:1021900033D1039B1A1D1B680392002BB8BF4FF06D
:1021A000FF33023705932E4D39780322284600F07D
:1021B000E7F938B14023401B03FA00F0049B0343C6
:1021C00001370493397827488DF8281006227E1CA1
:1021D00000F0D6F9002838D0234B13BB039B0733FC
:1021E00023F0070308330393099B4B4409936DE7DE
:1021F00005FB023201200F46A6E7002301370593B5
:1022000019460A25384610F8012B303A092A03D915
:10221000002BC8D00591C6E705FB01210123074625
:10222000F0E703AB00932246104B04A94046AFF3FE
:102230000080B0F1FF3F8146D6D1A3895B063FF510
:1022400036AF09981DB0BDE8F08F03AB009322466E
:10225000064B04A9404600F081F8EAE7042B000889
:102260000A2B00080E2B000800000000D11F0008F8
:102270002DE9F04791461F468A680B69DDF82080FA
:102280009342B8BF1346C9F8003091F84320064680
:102290000C4612B10133C9F800302368990642BFD9
:1022A000D9F800300233C9F80030256815F006056A
:1022B00007D104F1190AE368D9F800209B1AAB4250
:1022C00028DC94F843302268003318BF01239206BB
:1022D0002DD404F1430239463046C047013020D0A6
:1022E0002368E568D9F8002003F00603042B08BF33
:1022F000AD1AA36822690CBF25EAE5750025934253
:10230000C4BF9B1AED184FF000091A344D451AD17D
:10231000002008E00123524639463046C0470130CC
:1023200003D14FF0FF30BDE8F0870135C3E7E11876
:102330005A1C302081F84300224494F8451082F85A
:1023400043100233C5E70123224639463046C047D1
:102350000130E6D009F10109D8E700002DE9F0438A
:1023600001F1430C0C46097E85B06E2917460646DE
:1023700098460C9A00F0B38022D8632936D00AD848
:10238000002900F0B980582900F0838004F142054B
:1023900084F8421032E0642901D06929F6D120681E
:1023A0001368050603F104012AD51B681160002B90
:1023B00003DA2D225B4284F843206F480A2239E079
:1023C000732900F09D8008D86F2920D07029DDD1B5
:1023D000236843F02003236003E0752917D0782990
:1023E000D4D1782384F84530644855E01368191D2A
:1023F0001B68116004F1420584F8423001238CE02F
:102400001B68116010F0400F18BF1BB2CFE71368B4
:102410002568181D1060280601D51B6802E06806B3
:10242000FBD51B8854486F2914BF0A2208220021BB
:1024300084F843106568A560002DC0F2958021687E
:1024400021F004012160002B3DD1002D40F08E8051
:102450006546082A0BD12368DB0708D52369626823
:102460009A42DEBF302305F8013C05F1FF35ACEBA5
:1024700005032361CDF800803B4603AA2146304680
:10248000FFF7F6FE01304DD14FF0FF3005B0BDE84B
:10249000F083394884F84510136821681D1D1B68B6
:1024A00015600A060BD5CA0744BF41F02001216020
:1024B0001BB9226822F0200222601022B7E74D06E5
:1024C00048BF9BB2EFE76546B3FBF2F102FB113365
:1024D000C35C05F8013D0B460029F5D1B9E7136847
:1024E00025686169181D106028061B6801D51960F0
:1024F00002E06A06FBD51980002323616546B9E72F
:102500001368191D11601D6862680021284600F0DB
:1025100037F808B1401B606063682361002384F8CA
:102520004330A7E723692A4639463046C047013081
:10253000AAD023689B0713D4E068039B9842B8BFD6
:102540001846A3E701234A4639463046C0470130C2
:102550009AD00135E368039A9B1AAB42F2DCEBE7B1
:10256000002504F11909F5E7002BACD1037884F8B4
:10257000423004F142056CE7152B0008262B0008B9
:1025800001F0FF01102A2BDB10F0070F08D010F824
:10259000013B013A8B422DD010F0070F42B3F6D128
:1025A000F0B441EA012141EA014122F007047FF041
:1025B00000070023F0E80256083C85EA010586EA98
:1025C000010685FA47F5A3FA87F586FA47F6A5FAD4
:1025D00087F68EB9EED1F0BC01F0FF0102F00702E0
:1025E00032B110F8013B013A83EA010313B1F8D18B
:1025F0000020704701387047002D06BF354603386C
:10260000073815F0010F07D1013015F4807F02BFA4
:10261000013015F4C03F0130F0BC0138704700BFF5
:1026200010B5431E0A44914200D110BD11F8014B70
:1026300003F8014FF7E7884210B501EB020307D812
:10264000421E99420AD011F8014B02F8014FF8E7F7
:102650008342F5D98118D21AD34200D110BD13F8A4
:10266000014D01F8014DF7E738B50546002945D081
:1026700051F8043C0C1F002BB8BFE41800F0D2F84E
:102680001F4A1368104633B9636014602846BDE8DA
:10269000384000F0C8B8A3420CD9216862189342B0
:1026A00004BF1A685B68636004BF5218226004604C
:1026B000ECE713465A680AB1A242FAD919685818C9
:1026C000A0420BD120680144581882421960DDD124
:1026D000106852685A6001441960D7E702D90C2388
:1026E0002B60D3E7206821188A4204BF1168526822
:1026F000626004BF091821605C60C7E738BD00BF95
:102700008401002070B5CD1C25F0030508350C2D83
:1027100038BF0C25002D064601DBA94203D90C2346
:102720003360002070BD00F07DF8214A1468214616
:1027300091B9204C23681BB9304600F063F8206043
:102740002946304600F05EF8431C24D10C23336048
:10275000304600F068F8E4E70B685B1B18D40B2BDD
:102760000FD90B60CD50CC18304600F05CF804F166
:102770000B00231D20F00700C31AD3D05A42E250A9
:10278000D0E78C424B6816BF636013600C46EBE7E2
:102790000C464968CCE7C41C24F00304A04205D0D1
:1027A000211A304600F02EF80130CFD02560DBE74B
:1027B0008401002088010020F8B5074614460E4623
:1027C00021B91146BDE8F840FFF79CBF22B9FFF7D9
:1027D0004BFF25462846F8BD00F026F8A0420FD250
:1027E00021463846FFF78EFF05460028F2D03146D5
:1027F0002246FFF715FF31463846FFF735FFE9E778
:102800003546E7E738B5064C002305460846236001
:10281000FEF77AFA431C02D1236803B12B6038BD5E
:10282000900100207047704751F8043C181F002B9E
:10283000BCBF0B58C01870472E2E2F737973746568
:102840006D2F7372632F73746D333266342D68612C
:102850006C2F73746D3332663478785F68616C5FA7
:10286000636F727465782E63000000000000000042
:102870000102030401020304060708092E2E2F7328
:10288000797374656D2F7372632F73746D33326651
:10289000342D68616C2F73746D3332663478785FD1
:1028A00068616C5F7263632E6300000061626F7227
:1028B0007428292C2065786974696E672E2E2E0085
:1028C0006173736572745F706172616D282920662F
:1028D00061696C65643A2066696C65202225732203
:1028E0002C206C696E652025640A000053746163B6
:1028F0006B206672616D653A0A000000205230203C
:102900003D2020253038580A000000002052312098
:102910003D2020253038580A000000002052322087
:102920003D2020253038580A000000002052332076
:102930003D2020253038580A000000002052313256
:10294000203D20253038580A00000000204C52203D
:102950003D2020253038580A000000002050432038
:102960003D2020253038580A0000000020505352E6
:10297000203D20253038580A000000004653522FD1
:102980004641523A0A0000002043465352203D205F
:1029900020253038580A00002048465352203D2058
:1029A00020253038580A00002044465352203D204C
:1029B00020253038580A00002041465352203D203F
:1029C00020253038580A0000204D4D464152203D08
:1029D00020253038580A00002042464152203D2030
:1029E00020253038580A00004D6973630A00000042
:1029F000204C522F4558435F52455455524E3D206E
:102A0000253038580A0000005B48617264466175E1
:102A10006C745D0A000000005B4275734661756C62
:102A2000745D0A005B55736167654661756C745D22
:102A30000A00000000000000000000000102030482
:102A40000607080941542B43495053454E443D3431
:102A5000360D0A0047455420687474703A2F2F6D64
:102A60006F737461666173616C656D2E6672656506
:102A70007661722E636F6D2F7374617475732E742B
:102A80007874000041542B43574A41505F435552DC
:102A90003D22485541574549205939203230313976
:102AA000222C223132333132333435220D0A0000E8
:102AB00041542B43495053544152543D22544350A6
:102AC000222C22687474703A2F2F6D6F73746166B4
:102AD0006173616C656D2E667265657661722E63D9
:102AE0006F6D2F222C38300D0A00000041540D0A62
:102AF0000000000041542B43574D4F44453D310DDC
:102B00000A000000232D302B2000686C4C00656605
:102B1000674546470030313233343536373839412E
:102B20004243444546003031323334353637383944
:072B30006162636465660049
:102B38007856341284000020000000000024F400BD
:102B480001FFFFFF18000020000000000000000047
:102B5800000000000000000000000000000000006D
:102B6800000000000000000000000000000000005D
:102B7800000000000000000000000000000000004D
:102B8800000000000000000000000000000000003D
:102B9800000000000000000000000000000000002D
:0C2BA8000000000000000000325476988D
:040000050800019559
:00000001FF
